:100000000C9463000C948B000C948B000C948B006C
:100010000C948B000C948B000C948B000C948B0034
:100020000C948B000C948B000C948B000C948B0024
:100030000C948B000C948B000C948B000C948B0014
:100040000C9476050C948B000C948F060C948B000A
:100050000C948B000C948B000C948B000C948B00F4
:100060000C9408030C948B0000000000240027006F
:100070002A0000000000250028002B0000000000DE
:1000800023002600290004040404040404040202DA
:100090000202020203030303030301020408102007
:1000A0004080010204081020010204081020000012
:1000B0000007000201000003040600000000000029
:1000C0000000D501D80711241FBECFEFD8E0DEBF56
:1000D000CDBF11E0A0E0B1E0EAE8F3E102C0059095
:1000E0000D92A433B107D9F711E0A4E3B1E001C048
:1000F0001D92AE3FB107E1F710E0C6ECD0E004C0BE
:100100002297FE010E94BF09C23CD107C9F70E9495
:100110006F050C94C3090C9400000F931F93CF93A9
:10012000DF93689F8001699F100D789F100D112447
:10013000C8010E94A900EC01009729F060E070E07E
:10014000A8010E94AB01CE01DF91CF911F910F91C9
:100150000895CF93DF93BC018230910510F462E0E3
:1001600070E0A091FC01B091FD01ED01E0E0F0E054
:1001700040E050E021C0888199818617970769F493
:100180008A819B81309719F09383828304C0909376
:10019000FD018093FC01FE0134C06817790738F433
:1001A0004115510519F08417950708F4AC01FE01BB
:1001B0008A819B819C01E9012097E9F6411551054F
:1001C000A9F1CA01861B970B049708F4BA01E0E075
:1001D000F0E02AC08D919C91119784179507F9F44E
:1001E0006417750781F412968D919C91139730973F
:1001F00019F09383828304C09093FD018093FC01E6
:10020000FD0132964CC0CA01861B970BFD01E80F19
:10021000F91F6193719302978D939C9340C0FD01E8
:10022000828193819C01D9011097A1F68091FA01F6
:100230009091FB01892B41F4809121019091220141
:100240009093FB018093FA01409123015091240186
:100250004115510541F44DB75EB780911F01909152
:100260002001481B590B2091FA013091FB01CA0172
:10027000821B930B8617970780F0AB014E5F5F4F91
:100280008417950750F0420F531F5093FB01409382
:10029000FA01F9016193719302C0E0E0F0E0CF014F
:1002A000DF91CF910895CF93DF93009709F450C069
:1002B000EC0122971B821A82A091FC01B091FD01F2
:1002C000109709F140E050E0AC17BD0708F1BB837F
:1002D000AA83FE0121913191E20FF31FAE17BF07F0
:1002E00079F48D919C911197280F391F2E5F3F4F04
:1002F0003983288312968D919C9113979B838A83CF
:100300004115510571F4D093FD01C093FC0120C04B
:1003100012968D919C911397AD01009711F0DC011D
:10032000D3CFFA01D383C28321913191E20FF31F1E
:10033000CE17DF0769F488819981280F391F2E5F56
:100340003F4FFA01318320838A819B81938382838B
:10035000DF91CF910895DC0101C06D934150504071
:10036000E0F7089581E080933D0160933801109299
:100370003B0110923C010895809137019091360124
:10038000891B08959091360180913701981710F0DC
:1003900080E00895E0913401F0913501E90FF11DFD
:1003A00080819F5F9093360108950895DF93CF93E6
:1003B0000F92CDB7DEB7698380913D018823A9F004
:1003C00080913C018032B0F480913B01E091390191
:1003D000F0913A01E80FF11D608380913B018F5F3E
:1003E00080933B0180933C0105C0CE01019661E002
:1003F0000E94EB020F90CF91DF910895EF92FF9250
:100400000F931F93CF93DF937C01042F80913D01C5
:10041000882359F0EB0110E005C0C70169910E94E3
:10042000D6011F5F1017C8F304C0CB01642F0E94D0
:10043000EB02DF91CF911F910F91FF90EF90089504
:10044000DB010D900020E9F71197A61BB70B4A2F8F
:100450000E94FE0108956091390170913A018091E6
:10046000380140913C0121E00E94A60210923B011C
:1004700010923C0110923D010895862F6091340145
:1004800070913501413208F040E20E946E021092F4
:1004900036018093370108950E943D02089580E25D
:1004A00090E061E070E00E948D00809334019093B1
:1004B0003501109236011092370180E290E061E040
:1004C00070E00E948D008093390190933A01109260
:1004D0003B0110923C010E948A040895982F4132FA
:1004E00010F040E031C080913F018823E1F781E0C6
:1004F00080933F018FEF809350011092470141504C
:10050000409348014F5F990F91609093400185EEB1
:100510008093BC0080913F018130E1F380914701DD
:10052000841710F440914701A0914501B091460114
:1005300020E030E007C0FB01E20FF31F8D918083C4
:100540002F5F3F4F2417B8F3842F08951F93582F20
:10055000122F413210F081E03CC080913F0188238E
:10056000E1F782E080933F018FEF8093500110927A
:10057000470140934801A0914501B0914601FB011C
:1005800002C081918D938E2F861B8417D0F3852F07
:1005900090E0880F991F8093400185EE8093BC0006
:1005A000112321F080913F018230E1F380915001CD
:1005B0008F3F11F480E00DC080915001803211F422
:1005C00082E007C080915001803311F084E001C0C7
:1005D00083E01F910895482F613210F081E0089563
:1005E00080913F01843011F082E0089560934C01C6
:1005F000A0914901B0914A01842F9C01F90102C0E8
:1006000081918D938E2F841B8617D0F380E00895FF
:100610001F920F920FB60F9211242F933F934F9377
:100620005F936F937F938F939F93AF93BF93EF935A
:10063000FF938091B90090E0887F9070803691059B
:1006400009F4E2C081369105CCF58832910509F4B0
:100650007BC089329105B4F48031910509F46FC0F3
:10066000813191053CF4009709F438C1089709F0ED
:1006700040C165C08831910509F466C0809709F0D2
:1006800038C17FC08034910509F4A3C0813491053D
:1006900044F48033910509F47FC0C89709F029C15B
:1006A00086C08035910509F486C08835910509F426
:1006B00095C08834910509F01CC19EC08839910508
:1006C00009F404C189399105ECF48837910509F4DE
:1006D0009BC0893791054CF48836910509F494C084
:1006E0008037910509F005C18FC08838910509F45C
:1006F000EDC08039910509F48DC08038910509F06D
:10070000F8C088C0803B910509F4B2C0813B9105D7
:100710004CF4803A910509F491C0883A910509F0AA
:10072000E8C0A6C0803C910509F4D4C0883C91057E
:1007300009F4D0C0883B910509F0DBC0B1C08091BD
:1007400040018093BB00C0C0909147018091480157
:10075000981778F490914701E0914501F091460196
:10076000E90FF11D80818093BB009F5F909347014B
:10077000ABC085ED8093BC008091BC0084FDFCCFB4
:10078000B6C080E28093500185ED8093BC008091DB
:10079000BC0084FDFCCFABC080E38093500185EDAD
:1007A0008093BC008091BC0084FDFCCFA0C088E396
:1007B000809350018FC0809147019091BB00E091E0
:1007C0004501F0914601E80FF11D90838F5F809302
:1007D0004701909147018091480174C08091470181
:1007E0009091BB00E0914501F0914601E80FF11DA9
:1007F00090838F5F8093470185ED8093BC0080914B
:10080000BC0084FDFCCF73C083E080933F01109255
:100810004F015AC080914F01803208F057C080913B
:100820004F019091BB00E0914D01F0914E01E80F16
:10083000F11D90838F5F80934F0146C080914F01DF
:10084000803248F480914F01E0914D01F0914E01CA
:10085000E80FF11D108260914F01E0914301F0918A
:10086000440180914D0190914E0170E0099532C094
:1008700084E080933F0110924B0110924C01E09173
:100880004101F0914201099580914C01882341F486
:1008900081E080934C01E0914901F0914A0110827E
:1008A00090914B01E0914901F0914A01E90FF11D4E
:1008B00080818093BB009F5F90934B0190914B018F
:1008C00080914C01981710F485EC01C085E8809365
:1008D000BC000FC085EC8093BC0009C01092500191
:1008E00085ED8093BC008091BC0084FDFCCF10920C
:1008F0003F01FF91EF91BF91AF919F918F917F91B8
:100900006F915F914F913F912F910F900FBE0F907C
:100910001F90189510923F01449A459AE9EBF0E038
:1009200080818E7F808380818D7F808388E4809327
:10093000B80085E48093BC0080E290E061E070E064
:100940000E948D00809345019093460180E290E0E3
:1009500061E070E00E948D008093490190934A010C
:1009600080E290E061E070E00E948D0080934D0194
:1009700090934E010895CF93DF9390E080915301BF
:10098000882309F491E090935301992321F08091F9
:10099000270161E003C08091270160E00E944206C8
:1009A00060915101709152018EE391E00E94B20179
:1009B0008EE391E060E071E00E9420028EE391E01E
:1009C0000E942B026AE070E080E090E00E94BE0589
:1009D00060915101709152018EE391E042E050E04C
:1009E0000E944C0210925701109256018EE391E042
:1009F0000E94BC018823C1F0C0915601D0915701DB
:100A0000C230D1058CF48EE391E00E94C201CC5A31
:100A1000DE4F888380915601909157010196909303
:100A2000570180935601E2CF9091540180E02091CC
:100A30005501820F911D909359018093580187EEC3
:100A400091E062E071E00E94490880915801909124
:100A500059016AE070E00E94590987EE91E00E9416
:100A6000320987EE91E064E171E00E9449088091CB
:100A70005801909159016AE070E00E945909BC0147
:100A800087EE91E00E94320987EE91E066E171E025
:100A90000E94680864EF71E080E090E00E94BE056B
:100AA000DF91CF9108958091250190912601959530
:100AB0008795909352018093510187EE91E040E831
:100AC00055E260E070E00E94CC068091270161E071
:100AD0000E9422068EE391E00E944F0208950E9438
:100AE000E8050E9453050E94BB04FDCF1F920F92A0
:100AF0000FB60F9211242F933F938F939F93AF9331
:100B0000BF9380915E0190915F01A0916001B091CF
:100B10006101309162010196A11DB11D232F2D5F4E
:100B20002D3720F02D570196A11DB11D2093620194
:100B300080935E0190935F01A0936001B093610187
:100B400080915A0190915B01A0915C01B0915D018F
:100B50000196A11DB11D80935A0190935B01A09352
:100B60005C01B0935D01BF91AF919F918F913F91D7
:100B70002F910F900FBE0F901F901895EF92FF923C
:100B80000F931F937B018C018FB7F89440915E0106
:100B900050915F0160916001709161018FBF2FB72B
:100BA000F89480915E0190915F01A0916001B091F5
:100BB00061012FBF841B950BA60BB70BE816F90636
:100BC0000A071B0760F71F910F91FF90EF900895A0
:100BD000789484B5826084BD84B5816084BD85B518
:100BE000826085BD85B5816085BDEEE6F0E08081DF
:100BF00081608083E1E8F0E0808182608083808191
:100C000081608083E0E8F0E0808181608083E1EBB7
:100C1000F0E0808184608083E0EBF0E0808181609F
:100C20008083EAE7F0E08081846080838081826055
:100C3000808380818160808380818068808310923E
:100C4000C1000895282F30E0C90186569F4FFC014E
:100C500094912A573F4FF9018491882391F0E82F0E
:100C6000F0E0EE0FFF1FE859FF4FA591B491662306
:100C700029F48C91909589238C9308958C91892BDC
:100C80008C930895482F50E0CA0182559F4FFC0174
:100C90002491CA0186569F4FFC0194914A575F4F99
:100CA000FA0134913323D1F1222331F1233021F49D
:100CB000809180008F7705C0243031F480918000CE
:100CC0008F7D8093800018C0213019F484B58F7710
:100CD00004C0223021F484B58F7D84BD0DC0263040
:100CE00021F48091B0008F7705C0273029F48091DE
:100CF000B0008F7D8093B000E32FF0E0EE0FFF1F78
:100D0000EE58FF4FA591B491662329F48C919095EC
:100D100089238C9308958C91892B8C9308951F922D
:100D20000F920FB60F9211242F933F934F935F931F
:100D30006F937F938F939F93AF93BF93EF93FF93A3
:100D40004091C600E091E301F091E401CF010196EA
:100D500060E870E00E9459099C018091E501909142
:100D6000E6012817390739F0ED59FE4F40833093DB
:100D7000E4012093E301FF91EF91BF91AF919F9127
:100D80008F917F916F915F914F913F912F910F9034
:100D90000FBE0F901F9018955F926F927F928F9267
:100DA0009F92AF92BF92CF92DF92EF92FF920F93FA
:100DB0001F93CF93DF93EC013A014B01413482E45E
:100DC00058078FE0680780E078070CF07FC060E884
:100DD00074E88EE190E0A40193010E948E092150F5
:100DE000304040405040CA01B90122E030E040E0CC
:100DF00050E00E948E0959016A01A60195012095D3
:100E000030954095509594E0220F331F441F551F95
:100E10009A95D1F760E074E284EF90E00E948E0929
:100E2000CA01B9012FEF30E040E050E00E943A09DA
:100E3000A40193010E948E09C90181509F4F181689
:100E400019061CF4522E5A9403C055245394521A76
:100E500060E079E08DE390E0A40193010E948E09A7
:100E60002150304040405040CA01B90122E030E0FA
:100E700040E050E00E948E092095309540955095B5
:100E800083E0220F331F441F551F8A95D1F760E07E
:100E900074E284EF90E00E948E09CA01B9012FEF3D
:100EA00030E040E050E00E943A09A40193010E9422
:100EB0008E09C90181509F4F181619061CF4822F04
:100EC000815002C081E0821B851500F5E885F98517
:100ED00081E090E00A8802C0880F991F0A94E2F727
:100EE000808360E079E08DE390E0A40193010E94AB
:100EF0008E092150304040405040CA01B90122E0E3
:100F000030E040E050E00E948E0904C0E885F98599
:100F100010829501EC81FD813083EE81FF81208379
:100F2000EA85FB85208141E050E0CA010E8402C0C1
:100F3000880F991F0A94E2F7282B2083EA85FB8506
:100F40002081CA010F8402C0880F991F0A94E2F71A
:100F5000282B2083EA85FB858081088802C0440F06
:100F6000551F0A94E2F7842B8083DF91CF911F9164
:100F70000F91FF90EF90DF90CF90BF90AF909F9038
:100F80008F907F906F905F900895FC01A085B18550
:100F900021898C9190E0022E02C0959587950A9444
:100FA000E2F780FFF6CF0484F585E02D6083089595
:100FB0008DE291E09093E8018093E70183E691E070
:100FC0009093EA018093E90185EC90E09093EC0125
:100FD0008093EB0184EC90E09093EE018093ED011F
:100FE00080EC90E09093F0018093EF0181EC90E031
:100FF0009093F2018093F10186EC90E09093F401DC
:101000008093F30184E08093F50183E08093F601FF
:1010100087E08093F70185E08093F80181E0809379
:10102000F90108950F931F93CF93DF938C01EB0188
:1010300009C02196D801ED91FC910190F081E02D3D
:10104000C801099568816623A1F7DF91CF911F91AF
:101050000F910895EF92FF920F931F93CF93DF9319
:101060008C017B01EA010CC0D7016D917D01D80193
:10107000ED91FC910190F081E02DC8010995219737
:10108000209791F7DF91CF911F910F91FF90EF90F3
:101090000895DC01ED91FC910280F381E02D09952A
:1010A00008950F931F938C01DC01ED91FC91019049
:1010B000F081E02D6DE00995D801ED91FC91019052
:1010C000F081E02DC8016AE009951F910F91089504
:1010D0000F931F938C010E944908C8010E94510878
:1010E0001F910F9108952F923F924F925F926F92AE
:1010F0007F928F929F92AF92BF92CF92DF92EF92A8
:10110000FF920F931F93DF93CF93CDB7DEB7A097D6
:101110000FB6F894DEBF0FBECDBF1C016A017B0184
:10112000411551056105710549F4DC01ED91FC9112
:101130000190F081E02D60E3099554C08824992442
:101140005401422E55246624772401E010E00C0F50
:101150001D1F080D191DC701B601A30192010E94B0
:101160006C09F80160830894811C911CA11CB11CBE
:10117000C701B601A30192010E946C09C901DA01FD
:101180006C017D01C114D104E104F104F1F681E0A8
:10119000E82EF12CEC0EFD1EE80CF91C3E01089423
:1011A000611C711CD501C4010197A109B1096C0131
:1011B000C818D90814C0F601EE0DFF1D60816A3011
:1011C00010F4605D01C0695CD101ED91FC9101906A
:1011D000F081E02DC10109950894E108F1086E1431
:1011E0007F0449F7A0960FB6F894DEBF0FBECDBFBF
:1011F000CF91DF911F910F91FF90EF90DF90CF90F3
:10120000BF90AF909F908F907F906F905F904F9026
:101210003F902F900895EF92FF920F931F93CF93DB
:10122000DF93EC017A018B0177FF0FC0E881F98130
:101230000190F081E02D6DE2099510950095F094F4
:10124000E094E11CF11C011D111DCE01B801A701A4
:101250002AE00E947308DF91CF911F910F91FF90B8
:10126000EF900895AB01662757FD6095762F0E9499
:101270000B090895629FD001739FF001829FE00DDA
:10128000F11D649FE00DF11D929FF00D839FF00D05
:10129000749FF00D659FF00D9927729FB00DE11DB1
:1012A000F91F639FB00DE11DF91FBD01CF0111248E
:1012B000089597FB092E07260AD077FD04D049D060
:1012C00006D000201AF4709561957F4F0895F6F7C7
:1012D000909581959F4F0895A1E21A2EAA1BBB1BE2
:1012E000FD010DC0AA1FBB1FEE1FFF1FA217B307F2
:1012F000E407F50720F0A21BB30BE40BF50B661F08
:10130000771F881F991F1A9469F7609570958095CB
:1013100090959B01AC01BD01CF01089597FB092E6B
:1013200005260ED057FD04D0D7DF0AD0001C38F4B4
:1013300050954095309521953F4F4F4F5F4F089501
:10134000F6F790958095709561957F4F8F4F9F4FE1
:101350000895AA1BBB1B51E107C0AA1FBB1FA617FC
:10136000B70710F0A61BB70B881F991F5A95A9F74E
:1013700080959095BC01CD010895EE0FFF1F05905B
:0A138000F491E02D0994F894FFCFDA
:10138A00410043757272656E742068656164696EA6
:10139A00673A20002E002064656772656573002035
:1013AA0000FE01000042000D0000000000C5071207
:0413BA00082A0800F5
:00000001FF
