:100000000C94AC000C94D4000C94D4000C944001DB
:100010000C946A010C9494010C94D4000C94D400B8
:100020000C94D4000C94D4000C94D4000C94D40000
:100030000C94D4000C94D4000C94D4000C94D400F0
:100040000C948D0A0C94D4000C948A0B0C94D4005C
:100050000C94D4000C94D4000C94D4000C94D400D0
:100060000C94D4000C94D40000C2010001001100D3
:1000700011000C0000E100000A002500250021000D
:10008000009600001900390039003600127A00008D
:100090001F004600460044008070000022004D0012
:1000A0004D004A00004B00003600750075007200DC
:1000B000403800004A009C009C0099008025000008
:1000C0007200EC00EC00E900C0120000E900DA0167
:1000D000DA01D70160090000D701B603B603B30304
:1000E000B0040000B3036E076E076B072C0100001D
:1000F000DC0EC11DC11DBE1D000000002400270034
:100100002A0000000000250028002B00000000004D
:100110002300260029000404040404040404020249
:100120000202020203030303030301020408102076
:100130004080010204081020010204081020000081
:100140000007000201000003040600000000000098
:100150000000A508D30C9E0811241FBECFEFD8E0E5
:10016000DEBFCDBF11E0A0E0B1E0EEE6F3E202C0F9
:1001700005900D92AE3CB107D9F713E0AEECB1E0BB
:1001800001C01D92AB32B107E1F711E0C6E5D1E045
:1001900004C02297FE010E94A611C235D107C9F7FB
:1001A0000E94860A0C94AA110C9400000F931F93CE
:1001B000CF93DF93FC01718976957170A481B5812D
:1001C0009381772329F08C91892309F454C004C0CA
:1001D0008C91892309F04FC08185928520E0019799
:1001E0002FEF8F3F9207D9F7C385D485A481B581BE
:1001F000138160E031E040E050E000E0CE01202FCC
:1002000001972FEF8F3F9207D9F78C91812311F03F
:10021000632B03C0832F80956823330F4F5F5F4F9D
:100220004830510559F78585968520E001972FEFD5
:100230008F3F9207D9F7711160958091100220913C
:10024000110290E001968F73907030E0821793074F
:1002500079F0E0911002F0E0E053FE4F608380916E
:10026000100290E001968F7390708093100203C08B
:1002700081898160818BDF91CF911F910F910895CA
:100280001F920F920FB60F9211242F933F934F930B
:100290005F936F937F938F939F93AF93BF93EF93EE
:1002A000FF938091CE019091CF01009711F00E94B1
:1002B000D600FF91EF91BF91AF919F918F917F9168
:1002C0006F915F914F913F912F910F900FBE0F90C3
:1002D0001F9018951F920F920FB60F9211242F9313
:1002E0003F934F935F936F937F938F939F93AF93BE
:1002F000BF93EF93FF938091CE019091CF01009730
:1003000011F00E94D600FF91EF91BF91AF919F91A4
:100310008F917F916F915F914F913F912F910F90AE
:100320000FBE0F901F9018951F920F920FB60F924D
:1003300011242F933F934F935F936F937F938F93EA
:100340009F93AF93BF93EF93FF938091CE019091D2
:10035000CF01009711F00E94D600FF91EF91BF915D
:10036000AF919F918F917F916F915F914F913F914D
:100370002F910F900FBE0F901F901895CF92DF9284
:10038000EF92FF920F931F93CF93DF93EC017A01CB
:100390008B01188A1F861E861D861C861B861A8660
:1003A000198620E030E06901CC0CDD1CC20ED31EA2
:1003B000B601660F771F660F771FAB0148595F4F75
:1003C000FA0185919591A591B4918E159F05A0078D
:1003D000B107E9F4FB01E459FF4F859194919A87A5
:1003E0008987FB01E259FF4F859194919C878B8708
:1003F000FB01E059FF4F859194919E878D87FB010A
:10040000EE58FF4F85919491988B8F8706C02F5F90
:100410003F4F2C30310509F0C6CF8D859E85892B45
:1004200009F449C04A81463108F03DC09091680006
:10043000483010F484E005C04E3010F082E001C076
:1004400081E0892B80936800483028F4EDE6F0E0E5
:10045000ADE6B0E00BC04E3028F0ECE6F0E0ACE6E4
:10046000B0E004C0EBE6F0E0ABE6B0E0508148302D
:1004700040F481E090E002C0880F991F4A95E2F7AE
:1004800010C0242F30E04E3018F42850304002C005
:100490002E50304081E090E002C0880F991F2A95CD
:1004A000E2F7852B8C938F85988920E001972FEFB9
:1004B0008F3F9207D9F78091CE019091CF018C1791
:1004C0009D0781F089898E7F898B9FB7F894109260
:1004D00010028091100280931102D093CF01C0933B
:1004E000CE019FBFDF91CF911F910F91FF90EF90B1
:1004F000DF90CF900895FC014281463180F548306D
:1005000028F4EDE6F0E0ADE6B0E00BC04E3028F4A4
:10051000EBE6F0E0ABE6B0E004C0ECE6F0E0ACE621
:10052000B0E05081483040F481E090E002C0880F94
:10053000991F4A95E2F710C0242F30E04E3018F48E
:100540002850304002C02E50304081E090E002C080
:10055000880F991F2A95E2F7809585238C9308953B
:10056000FC018DEB91E091838083CF010E947B029F
:100570000895FC018091CE019091CF018E179F07C5
:1005800089F081898E7F818B9FB7F8941092100239
:100590008091100280931102F093CF01E093CE017D
:1005A0009FBF06C09091110280911002981719F414
:1005B0002FEF3FEF0FC0E0911102F0E0E053FE4F4C
:1005C00020818091110290E001968F73907080934A
:1005D000110230E0C9010895FC018091CE01909193
:1005E000CF018E179F0791F081898E7F818B9FB7F6
:1005F000F894109210028091100280931102F093EF
:10060000CF01E093CE019FBF80E00895809110025A
:100610002091110290E0805C9F4F821B910960E461
:1006200070E00E94401108950F931F93DC011F9604
:100630008D919C915097892B09F4B6C08091CE0181
:100640009091CF018A179B07A1F051968C915197F9
:100650008E7F51968C9351979FB7F8941092100209
:100660008091100280931102B093CF01A093CE012C
:100670009FBF0FB7F89451968C9151971796ED91B3
:10068000FC91189716962C91169781FF88C080814F
:10069000822B80831F968D919C915097059620E028
:1006A00001972FEF8F3F9207D9F751968C91519771
:1006B00081FF35C031E040E050E070E010E0832F72
:1006C00090E0862397231796ED91FC911897169644
:1006D0002C911697892B29F080812095282320833F
:1006E00003C08081822B80831F968D919C915097AF
:1006F000212F01972FEF8F3F9207D9F7330F4F5FCD
:100700005F4F48305105D9F61796ED91FC91189737
:10071000908116968C9116978095892333C031E08D
:1007200040E050E070E010E0832F90E086239723B4
:100730001796ED91FC91189716962C911697892B88
:1007400021F08081822B808304C080812095282322
:1007500020831F968D919C915097212F01972FEF09
:100760008F3F9207D9F7330F4F5F5F4F48305105E6
:10077000D9F61796ED91FC911897808116969C9169
:100780001697892B80830FBF1F968D919C91509750
:1007900020E001972FEF8F3F9207D9F705C08081A6
:1007A00020952823208376CF1F910F9108951F93C2
:1007B000CF93DF93EC01162F862F60E00E941D0B74
:1007C000898981FD04C0812F61E00E943D0B1A835D
:1007D000212F30E0C901865D9E4FFC0184918B83FF
:1007E0002A5E3E4FF9016491E62FF0E0EE0FFF1F05
:1007F000E45FFE4F859194919D838C83DF91CF912F
:100800001F910895FF920F931F938C01F62E862F50
:1008100061E00E941D0B8F2D61E00E943D0B8F2D2A
:1008200090E0FC01E65DFE4FE491D8011696EC9352
:1008300016978A5E9E4FFC016491E62FF0E0EE0F62
:10084000FF1FEE5FFE4F8591949118969C938E93B7
:1008500017971F910F91FF900895FF920F931F9389
:100860008C01F62E8DEB91E0F80191838083128646
:1008700011861486138616861586108A1786818936
:100880002170220F8C7F822B818BC801642F0E94E4
:100890000204C8016F2D0E94D7031F910F91FF9092
:1008A0000895FC012FEF3FEF4FEF5FEF208331837F
:1008B0004283538310861186128613868FEF99EC3C
:1008C000AAE9BBE3808B918BA28BB38B808F918F36
:1008D000A28FB38F80A391A3A2A3B3A380A791A754
:1008E000A2A7B3A780AB91ABA2ABB3AB20AF31AFA4
:1008F00042AF53AFE05CFF4F208331834283538389
:10090000389611921082709682E081931192119222
:1009100011921192119211921192119211921182CF
:100920001082799710820895CF93DF93FC01EB0139
:100930006115710561F0E35AFF4F80819181A281B9
:10094000B381ED55F04088839983AA83BB83411519
:10095000510549F0EF59FF4F80819181E156F040F8
:10096000DA018D939C932115310539F0ED59FF4F34
:1009700080819181F90191838083DF91CF910895E6
:10098000EF92FF920F931F93CF93DF939C01EE247E
:10099000FC01E65BFF4F80818D3231F4EE24E3945D
:1009A000E901C55BDF4F01C0EF018E0120E030E0BF
:1009B00040E050E018C0CA01B9012AE030E040E050
:1009C00050E00E9421112F2D332727FD3095432F12
:1009D000532F2053304040405040260F371F481FB0
:1009E000591F0F5F1F4FF801F0808F2D80538A3001
:1009F00010F3CA01B90124E630E040E050E00E9463
:100A000021119B01AC0101C021969881892F80534F
:100A10008A30D0F39E3229F59981892F80538A300C
:100A200000F58AE09802C0011124805E9140AA2757
:100A300097FDA095BA2F280F391F4A1F5B1F9A8177
:100A4000892F80538A3068F4892F992787FD9095E4
:100A5000C097AA2797FDA095BA2F280F391F4A1FC4
:100A60005B1FEE2039F050954095309521953F4F12
:100A70004F4F5F4FB901CA01DF91CF911F910F9185
:100A8000FF90EF9008954F925F926F927F928F92B6
:100A90009F92AF92BF92CF92DF92EF92FF920F930D
:100AA0001F93CF93DF932AE4822E912C880E991EF8
:100AB000E40120E030E040E050E017C0CA01B90195
:100AC0002AE030E040E050E00E942111212F33273E
:100AD00027FD3095432F532F205330404040504046
:100AE000260F371F481F591F21961881812F8053C9
:100AF0008A3020F3722E632E542E452EB901CA017E
:100B000024E630E040E050E00E94531120E137E25B
:100B100040E050E00E9421115B016C0103C0089489
:100B2000811C911CF4019081892F80538A30B8F385
:100B30009E3269F588EEE82E83E0F82E012D112D06
:100B40001DC0332727FD309520533040442737FD03
:100B50004095542FC801B7010E942111A60EB71E5F
:100B6000C81ED91EC801B7012AE030E040E050E0BD
:100B70000E945311C901DA017C018D010894811C86
:100B8000911CF4012081822F80538A30D0F2C6015B
:100B9000B50126E030E040E050E00E9453117901B9
:100BA0008A01672D762D852D942D24E630E040E0D6
:100BB00050E00E945311CA01B90120EA36E841E031
:100BC00050E00E942111E60EF71E081F191FB70101
:100BD000C801DF91CF911F910F91FF90EF90DF90AF
:100BE000CF90BF90AF909F908F907F906F905F90CD
:100BF0004F900895FF920F931F93CF93DF93EC01D3
:100C0000C75BDF4F8881C954D040882309F4CFC027
:100C1000C65BDF4F9881CA54D040892F81548630FB
:100C200038F4292F332727FD3095275330400CC047
:100C3000292F332727FD30959156963018F42755E4
:100C4000304002C020533040C55BDF4F4881CB5459
:100C5000D040842F8154863030F4842F992787FD2B
:100C60009095C7970BC0842F992787FD9095415683
:100C7000463018F48755904001C0C09744E0220FD9
:100C8000331F4A95E1F7982F920FC85BDF4F888199
:100C9000C854D040981709F081C0C45ADF4F8881EA
:100CA000CC55D040882309F4ACC1FE01EF59FF4F69
:100CB000808191810196918380838CAD9DADAEAD95
:100CC000BFAD88AF99AFAAAFBBAFFE01E05CFF4FED
:100CD000CC5BDF4F88819981AA81BB81808391831E
:100CE000A283B38365968881C955D0408823A1F13A
:100CF000813009F051C08C819D81AE81BF81888394
:100D00009983AA83BB838C859D85AE85BF858887A3
:100D10009987AA87BB878C899D89AE89BF89888B73
:100D2000998BAA8BBB8B8C8D9D8DAE8DBF8D888F43
:100D3000998FAA8FBB8F8CA59DA5AEA5BFA588A7AF
:100D400099A7AAA7BBA78CA99DA9AEA9BFA988AB43
:100D500099ABAAABBBAB20C08CA19DA1AEA1BFA19A
:100D600088A399A3AAA3BBA38C819D81AE81BF81D7
:100D700088839983AA83BB838C899D89AE89BF8927
:100D8000888B998BAA8BBB8B8C8D9D8DAE8DBF8DE7
:100D9000888F998FAA8FBB8F81E034C1FE01ED59F6
:100DA000FF4F808191810196918380832AC1C65A29
:100DB000DF4F3881CA55D040332321F59E01265B91
:100DC0003F4FD901E0E0F1E002C0119631969C91CD
:100DD000992339F080819817C1F3D901E6E0F1E059
:100DE00006C0C75ADF4F81E016C1119631969C911B
:100DF000992321F080819817C1F30AC1C75ADF4FA8
:100E00001882FFC0C75ADF4F8881C955D040823051
:100E100009F4F7C0C65BDF4F2881CA54D0402223B3
:100E200009F4EFC0882319F084E690E002C088EC52
:100E300090E0830F911D8C36910509F49FC08D368B
:100E40009105ECF48836910509F462C08936910564
:100E50006CF48636910509F443C0873691050CF091
:100E600047C08536910509F0CCC02CC08A36910563
:100E700009F469C08B3691050CF078C05CC08B3CDE
:100E8000910509F445C08C3C91055CF4893C9105C1
:100E9000C9F08A3C910564F58D36910509F0B1C021
:100EA00075C08D3C910509F44EC08D3C91050CF444
:100EB00042C08E3C910509F494C0813D910509F032
:100EC000A0C098C0CE010E94C0046C837D838E8335
:100ED0009F830E94D50A6CAF7DAF8EAF9FAF91C04C
:100EE000FE01E45AFF4F1082213409F08AC07FC00E
:100EF000CE010E9443056C8B7D8B8E8B9F8B0E9455
:100F0000D50ACC5BDF4F688379838A839B8379C062
:100F1000233509F076C08C899D89AE89BF89B0954B
:100F2000A095909581959F4FAF4FBF4F8C8B9D8B18
:100F3000AE8BBF8B66C0CE010E9443056C8F7D8F48
:100F40008E8F9F8F5EC0273509F05BC08C8D9D8D85
:100F5000AE8DBF8DB095A095909581959F4FAF4F69
:100F6000BF4F8C8F9D8FAE8FBF8F4BC0CE010E9425
:100F7000C0046CA77DA78EA79FA743C0CE010E9487
:100F8000C0046CAB7DAB8EAB9FAB3BC08E01065BF0
:100F90001F4F20E030E040E050E018C0CA01B90126
:100FA0002AE030E040E050E00E9421112F2D33274D
:100FB00027FD3095432F532F205330404040504061
:100FC000260F371F481F591F0F5F1F4FF801F08072
:100FD0008F2D80538A3010F32C873D874E875F8793
:100FE00010C0FE01E45AFF4F1082213354F081E01B
:100FF000808307C0CE010E94C0046CA37DA38EA392
:101000009FA380E0DF91CF911F910F91FF900895F2
:10101000C75ADF4F82E08883F4CF1F93CF93DF93CB
:10102000EC01162FFC01E35AFF4F80819181A281D0
:10103000B3810196A11DB11D80839183A283B383E7
:101040006432A1F1DE01A55ABF4F65322CF46A303B
:1010500069F06D30C9F50AC06A3241F06C32A1F511
:10106000FE01E85BFF4F8081862780838C918F3063
:1010700010F090E00AC0FE01E80FF11DE65BFF4FA3
:101080001082CE010E94FA05982FFE01E65AFF4F0A
:1010900080818F5F8083C55ADF4F1882FE0172976F
:1010A00010821A3251F581E0808327C0C55ADF4F84
:1010B00018821A9262971882619682E088836097FC
:1010C00018826396188218C08C918E3040F4FE010D
:1010D000E80FF11DE65BFF4F10838F5F8C93C75BBA
:1010E000DF4F8881C954D040882331F4FE01E85B8A
:1010F000FF4F80818127808390E0892FDF91CF91FE
:101100001F9108958130910579F46F5F7F4FA9F4A5
:1011100082E192E00E94510489E792E062E043E0BC
:1011200020E00E942D040895892B39F46F5F7F4FD2
:1011300021F489E792E00E94B002089580E090E0F7
:101140006FEF7FEF0E948208089581E090E06FEFDB
:101150007FEF0E94820808954F925F926F927F9274
:101160008F929F92AF92BF92CF92DF92EF92FF92B7
:101170000F931F93DF93CF93CDB7DEB728970FB6AA
:10118000F894DEBF0FBECDBF3C01FC01E088F188C2
:1011900002891389A08CB18CC28CD38C88E193E036
:1011A0006CE071E00E94440D88E193E0B801A70172
:1011B0000E940A0E88E193E067E171E00E94440D0D
:1011C00088E193E0B601A5010E94310EF301E084AD
:1011D000F1840285138580809180A280B380C8014C
:1011E000B70124E630E040E050E00E9453112B01AB
:1011F000613571052CF490EDC92E97E0D92E04C00D
:101200008CE6C82E87E0D82E88E193E06AE171E091
:101210000E94440DC801B70124E630E040E050E0F0
:101220000E945311CA01B90124E630E040E050E0C9
:101230000E945311462F50E060E070E088E193E097
:101240002AE030E00E94540E88E193E061E271E010
:101250000E94440DC801B70120E137E240E050E0B0
:101260000E94531130E040E050E088E193E0BA0181
:10127000A9012AE030E00E94540E88E193E061E287
:1012800071E00E94440DC40CD51C88E193E0B601C6
:101290000E943C0E88E193E063E271E00E94440DFD
:1012A000C501B40120E432E44FE050E00E94531144
:1012B00030E040E050E088E193E0BA01A9012AE083
:1012C00030E00E94540E88E193E06CE271E00E94ED
:1012D000440DC501B40120E137E240E050E00E9436
:1012E0005311CA01B90124E630E040E050E00E9409
:1012F0005311462F50E060E070E088E193E02AE06F
:1013000030E00E94540E88E193E06CE271E00E94AC
:10131000440DC501B40124E630E040E050E00E94F5
:101320005311CA01B90124E630E040E050E00E94C8
:101330005311462F50E060E070E088E193E02AE02E
:1013400030E00E94540E88E193E06EE271E00E946A
:10135000440DC501B40124E630E040E050E00E94B5
:101360005311462F50E060E070E088E193E02AE0FE
:1013700030E00E94690E88E193E060E371E00E9432
:10138000440DF30160A171A182A193A10E940E10EE
:1013900020E030E048EC52E40E94730FAB01BC0146
:1013A00088E193E00E94FF0E88E193E064E471E03D
:1013B0000E94440DF30160A971A982A993A90E941A
:1013C0000C1020E030E048EC52E40E94730FAB01B7
:1013D000BC0188E193E00E94FF0E88E193E067E59D
:1013E00071E00E94440DF30160A571A582A593A54B
:1013F0000E940C1020E030E048EC52E40E94730F91
:101400002EEB3CE443E95FE30E94BE10AB01BC015C
:1014100088E193E00E94FF0E88E193E00E944C0D6A
:10142000C301BE016B5F7F4FAE014F5F5F4F9E01F7
:101430002D5F3F4F0E94940428960FB6F894DEBFAC
:101440000FBECDBFCF91DF911F910F91FF90EF9015
:10145000DF90CF90BF90AF909F908F907F906F90D4
:101460005F904F9008950F931F9317C089E792E004
:101470000E94B902182F092F82E192E0612F0E9489
:101480000D08882351F088E193E0612F702F0E94AE
:10149000440E82E192E00E94AC0889E792E00E944B
:1014A000EC02882319F71F910F910895EF92FF9294
:1014B0000F931F9308E113E0C80140E052EC61E094
:1014C00070E00E94C70B89E792E040EC52E160E0D7
:1014D00070E00E94BE0124E6E22E21E0F22EC80157
:1014E000B7010E94630DC80165E671E00E94630DBB
:1014F000C8016EE871E00E94630DC801B7010E9447
:10150000630D1F910F91FF90EF9008950E94E30AE1
:101510000E94560A0E94330AFDCF1F920F920FB607
:101520000F9211242F933F938F939F93AF93BF9369
:1015300080918F0290919002A0919102B0919202BD
:10154000309193020196A11DB11D232F2D5F2D37E0
:1015500020F02D570196A11DB11D20939302809379
:101560008F0290939002A0939102B0939202809187
:101570008B0290918C02A0918D02B0918E02019607
:10158000A11DB11D80938B0290938C02A0938D02BC
:10159000B0938E02BF91AF919F918F913F912F9108
:1015A0000F900FBE0F901F9018958FB7F894209151
:1015B0008F023091900240919102509192028FBF20
:1015C000B901CA010895789484B5826084BD84B558
:1015D000816084BD85B5826085BD85B5816085BD2E
:1015E000EEE6F0E0808181608083E1E8F0E08081D8
:1015F00082608083808181608083E0E8F0E0808188
:1016000081608083E1EBF0E0808184608083E0EBA7
:10161000F0E0808181608083EAE7F0E0808184608F
:1016200080838081826080838081816080838081EB
:10163000806880831092C1000895282F30E0C9018E
:10164000865D9E4FFC0194912A5E3E4FF901849184
:10165000882391F0E82FF0E0EE0FFF1FE850FF4FD6
:10166000A591B491662329F48C91909589238C934C
:1016700008958C91892B8C930895482F50E0CA01CE
:10168000825C9E4FFC012491CA01865D9E4FFC0145
:1016900094914A5E5E4FFA0134913323D1F12223B3
:1016A00031F1233021F4809180008F7705C0243000
:1016B00031F4809180008F7D8093800018C02130AC
:1016C00019F484B58F7704C0223021F484B58F7D5E
:1016D00084BD0DC0263021F48091B0008F7705C005
:1016E000273029F48091B0008F7D8093B000E32FE4
:1016F000F0E0EE0FFF1FEE5FFE4FA591B491662361
:1017000029F48C91909589238C9308958C91892B41
:101710008C9308951F920F920FB60F9211242F935E
:101720003F934F935F936F937F938F939F93AF9369
:10173000BF93EF93FF934091C600E0911403F091A3
:101740001503CF01019660E870E00E9440119C01F2
:1017500080911603909117032817390739F0EC563A
:10176000FD4F40833093150320931403FF91EF91B5
:10177000BF91AF919F918F917F916F915F914F91A9
:101780003F912F910F900FBE0F901F9018955F9271
:101790006F927F928F929F92AF92BF92CF92DF9281
:1017A000EF92FF920F931F93CF93DF93EC013A01D7
:1017B0004B01413482E458078FE0680780E07807E6
:1017C0000CF07FC060E874E88EE190E0A401930122
:1017D0000E9475112150304040405040CA01B9016B
:1017E00022E030E040E050E00E94751159016A01AA
:1017F000A6019501209530954095509594E0220FD3
:10180000331F441F551F9A95D1F760E074E284EFAF
:1018100090E00E947511CA01B9012FEF30E040E05D
:1018200050E00E942111A40193010E947511C90189
:1018300081509F4F181619061CF4522E5A9403C05B
:1018400055245394521A60E079E08DE390E0A401AE
:1018500093010E9475112150304040405040CA0110
:10186000B90122E030E040E050E00E94751120957F
:1018700030954095509583E0220F331F441F551F2C
:101880008A95D1F760E074E284EF90E00E947511D0
:10189000CA01B9012FEF30E040E050E00E94211171
:1018A000A40193010E947511C90181509F4F181620
:1018B00019061CF4822F815002C081E0821B85151D
:1018C00000F5E885F98581E090E00A8802C0880F7C
:1018D000991F0A94E2F7808360E079E08DE390E05D
:1018E000A40193010E9475112150304040405040A6
:1018F000CA01B90122E030E040E050E00E947511D9
:1019000004C0E885F98510829501EC81FD81308362
:10191000EE81FF812083EA85FB85208141E050E054
:10192000CA010E8402C0880F991F0A94E2F7282B7F
:101930002083EA85FB852081CA010F8402C0880FBD
:10194000991F0A94E2F7282B2083EA85FB85808182
:10195000088802C0440F551F0A94E2F7842B808345
:10196000DF91CF911F910F91FF90EF90DF90CF907B
:10197000BF90AF909F908F907F906F905F900895F1
:10198000FC01A085B18521898C9190E0022E02C0D6
:10199000959587950A94E2F780FFF6CF0484F58544
:1019A000E02D6083089587EC91E090931903809374
:1019B000180384E992E090931B0380931A0385EC4B
:1019C00090E090931D0380931C0384EC90E090932F
:1019D0001F0380931E0380EC90E09093210380937B
:1019E000200381EC90E0909323038093220386EC04
:1019F00090E0909325038093240384E08093260352
:101A000083E08093270387E08093280385E0809319
:101A1000290381E080932A0308950F931F93CF93A6
:101A2000DF938C01EB0109C02196D801ED91FC9167
:101A30000190F081E02DC801099568816623A1F726
:101A4000DF91CF911F910F910895EF92FF920F9325
:101A50001F93CF93DF938C017B01EA010CC0D70168
:101A60006D917D01D801ED91FC910190F081E02D07
:101A7000C80109952197209791F7DF91CF911F9188
:101A80000F91FF90EF900895DC01ED91FC910280A1
:101A9000F381E02D099508950F931F938C01DC01CC
:101AA000ED91FC910190F081E02D6DE00995D80158
:101AB000ED91FC910190F081E02DC8016AE009955B
:101AC0001F910F9108950F931F938C010E94440D55
:101AD000C8010E944C0D1F910F9108952F923F92C3
:101AE0004F925F926F927F928F929F92AF92BF922E
:101AF000CF92DF92EF92FF920F931F93DF93CF93DA
:101B0000CDB7DEB7A0970FB6F894DEBF0FBECDBF3E
:101B10001C016A017B01411551056105710549F4FC
:101B2000DC01ED91FC910190F081E02D60E30995DD
:101B300054C0882499245401422E552466247724C5
:101B400001E010E00C0F1D1F080D191DC701B601A3
:101B5000A30192010E945311F80160830894811C33
:101B6000911CA11CB11CC701B601A30192010E94E6
:101B70005311C901DA016C017D01C114D104E104E2
:101B8000F104F1F681E0E82EF12CEC0EFD1EE80CDC
:101B9000F91C3E010894611C711CD501C401019718
:101BA000A109B1096C01C818D90814C0F601EE0DDD
:101BB000FF1D60816A3010F4605D01C0695CD10175
:101BC000ED91FC910190F081E02DC10109950894FF
:101BD000E108F1086E147F0449F7A0960FB6F89457
:101BE000DEBF0FBECDBFCF91DF911F910F91FF9050
:101BF000EF90DF90CF90BF90AF909F908F907F90AD
:101C00006F905F904F903F902F9008952AE00E9430
:101C10006E0D0895EF92FF920F931F93CF93DF9372
:101C2000EC017A018B0177FF0FC0E881F981019007
:101C3000F081E02D6DE2099510950095F094E09407
:101C4000E11CF11C011D111DCE01B801A7012AE004
:101C50000E946E0DDF91CF911F910F91FF90EF9039
:101C600008950F931F938C010E940A0EC8010E94D1
:101C70004C0D1F910F910895AB01662757FD60959C
:101C8000762F0E940A0E08950F931F938C01AB01CB
:101C9000662757FD6095762F0E940A0EC8010E94A4
:101CA0004C0D1F910F910895DC012115310541F470
:101CB000ED91FC910190F081E02D642F099508953C
:101CC0002A30310519F40E940A0E08950E946E0D03
:101CD00008950F931F938C010E94540EC8010E9417
:101CE0004C0D1F910F9108959F92AF92BF92CF928A
:101CF000DF92EF92FF920F931F93CF93DF93EC014C
:101D00007A018B01922ECB01BA0120E030E040E055
:101D100050E00E946F0F882364F4E881F9810190FC
:101D2000F081E02DCE016DE2099517FB109517F9B2
:101D3000109520E030E040E05FE3AA240BC0CA0128
:101D4000B90120E030E040E251E40E94730F9B01B2
:101D5000AC01A394A91498F3C801B7010E940B0F1A
:101D60005B016C010E94E00F7B018C01CE01B80188
:101D7000A7010E94060E992029F0CE0167EB71E0C1
:101D80000E94440DC801B7010E940C109B01AC01D8
:101D9000C601B5010E940A0F20C020E030E040E2F9
:101DA00051E40E94BE107B018C010E94DB0F5B019D
:101DB0006C01CC24B7FCC094DC2CCE01B601A5018B
:101DC0000E940A0EC601B5010E940E109B01AC01D3
:101DD000C801B7010E940A0F9A949920F1F6DF9189
:101DE000CF911F910F91FF90EF90DF90CF90BF9018
:101DF000AF909F90089522E00E94740E08950F9373
:101E00001F938C010E94FB0EC8010E944C0D1F9174
:101E10000F9108955058BB27AA270ED075C166D1DF
:101E200030F06BD120F031F49F3F11F41EF45BC110
:101E30000EF4E095E7FB51C1E92F77D180F3BA1793
:101E4000620773078407950718F071F49EF58FC138
:101E50000EF4E0950B2EBA2FA02D0B01B9019001C5
:101E60000C01CA01A0011124FF27591B99F0593F09
:101E700050F4503E68F11A16F040A22F232F342F51
:101E80004427585FF3CF469537952795A795F0409F
:101E90005395C9F77EF41F16BA0B620B730B840BB4
:101EA000BAF09150A1F0FF0FBB1F661F771F881F6C
:101EB000C2F70EC0BA0F621F731F841F48F48795C4
:101EC00077956795B795F7959E3F08F0B3CF9395B3
:101ED000880F08F09927EE0F979587950895D9D028
:101EE00008F481E008950CD00FC107D140F0FED076
:101EF00030F021F45F3F19F0F0C0511139C1F3C047
:101F000014D198F39923C9F35523B1F3951B550BBD
:101F1000BB27AA2762177307840738F09F5F5F4FBC
:101F2000220F331F441FAA1FA9F333D00E2E3AF0FD
:101F3000E0E830D091505040E695001CCAF729D017
:101F4000FE2F27D0660F771F881FBB1F2617370766
:101F50004807AB07B0E809F0BB0B802DBF01FF2796
:101F600093585F4F2AF09E3F510568F0B6C000C1FC
:101F70005F3FECF3983EDCF3869577956795B795D0
:101F8000F7959F5FC9F7880F911D9695879597F9EB
:101F90000895E1E0660F771F881FBB1F6217730764
:101FA0008407BA0720F0621B730B840BBA0BEE1F79
:101FB00088F7E095089504D06894B111D9C00895C8
:101FC000BCD088F09F5790F0B92F9927B751A0F057
:101FD000D1F0660F771F881F991F1AF0BA95C9F7BD
:101FE00012C0B13081F0C3D0B1E00895C0C0672FF6
:101FF000782F8827B85F39F0B93FCCF3869577956D
:102000006795B395D9F73EF4909580957095619555
:102010007F4F8F4F9F4F0895E89409C097FB3EF480
:1020200090958095709561957F4F8F4F9F4F992325
:10203000A9F0F92F96E9BB279395F69587957795A3
:102040006795B795F111F8CFFAF4BB0F11F460FF63
:102050001BC06F5F7F4F8F4F9F4F16C0882311F0BB
:1020600096E911C0772321F09EE8872F762F05C0CF
:10207000662371F096E8862F70E060E02AF09A956A
:10208000660F771F881FDAF7880F9695879597F95F
:102090000895990F0008550FAA0BE0E8FEEF1616F9
:1020A0001706E807F907C0F012161306E407F5074C
:1020B00098F0621B730B840B950B39F40A2661F0C0
:1020C000232B242B252B21F408950A2609F4A14063
:1020D000A6958FEF811D811D089597F99F6780E870
:1020E00070E060E008959FEF80EC089500240A946A
:1020F0001616170618060906089500240A941216E3
:102100001306140605060895092E0394000C11F415
:10211000882352F0BB0F40F4BF2B11F460FF04C0C2
:102120006F5F7F4F8F4F9F4F089557FD9058440F1B
:10213000551F59F05F3F71F04795880F97FB991F26
:1021400061F09F3F79F087950895121613061406E3
:10215000551FF2CF4695F1DF08C016161706180670
:10216000991FF1CF86957105610508940895E8944B
:10217000BB2766277727CB0197F908950BD0C4CFEB
:10218000B5DF28F0BADF18F0952309F0A6CFABCF62
:102190001124EECFCADFA0F3959FD1F3950F50E045
:1021A000551F629FF001729FBB27F00DB11D639F09
:1021B000AA27F00DB11DAA1F649F6627B00DA11DAF
:1021C000661F829F2227B00DA11D621F739FB00D55
:1021D000A11D621F839FA00D611D221F749F3327C5
:1021E000A00D611D231F849F600D211D822F762F5E
:1021F0006A2F11249F5750408AF0E1F088234AF05B
:10220000EE0FFF1FBB1F661F771F881F91505040A6
:10221000A9F79E3F510570F060CFAACF5F3FECF366
:10222000983EDCF3869577956795B795F795E79592
:102230009F5FC1F7FE2B880F911D9695879597F9A3
:102240000895629FD001739FF001829FE00DF11D00
:10225000649FE00DF11D929FF00D839FF00D749F20
:10226000F00D659FF00D9927729FB00DE11DF91FCC
:10227000639FB00DE11DF91FBD01CF011124089529
:1022800097FB092E07260AD077FD04D049D006D047
:1022900000201AF4709561957F4F0895F6F7909598
:1022A00081959F4F0895A1E21A2EAA1BBB1BFD0129
:1022B0000DC0AA1FBB1FEE1FFF1FA217B307E40725
:1022C000F50720F0A21BB30BE40BF50B661F771F7D
:1022D000881F991F1A9469F760957095809590955D
:1022E0009B01AC01BD01CF01089597FB092E052686
:1022F0000ED057FD04D0D7DF0AD0001C38F450951B
:102300004095309521953F4F4F4F5F4F0895F6F719
:1023100090958095709561957F4F8F4F9F4F089551
:10232000AA1BBB1B51E107C0AA1FBB1FA617B707FB
:1023300010F0A61BB70B881F991F5A95A9F7809517
:102340009095BC01CD010895EE0FFF1F0590F4910B
:10235000E02D099411E0C6E5D1E004C0FE010E9421
:0E236000A6112296C835D107C9F7F894FFCF11
:10236E004750524D43004750474741004C61742F30
:10237E004C6F6E673A20002C2000446174653A2041
:10238E00002F00202054696D653A20003A002E007F
:10239E00416C74697475646520286D65746572731B
:1023AE00293A2000436F7572736520286465677241
:1023BE00656573293A20005370656564286D7068F1
:1023CE00293A20000047505320536869656C6420F9
:1023DE00517569636B5374617274204578616D70C9
:1023EE006C6520536B657463682076313200202053
:1023FE0020202020202E2E2E77616974696E672092
:10240E00666F72206C6F636B2E2E2E202020202084
:10241E00202020202020002E000000000014030D9C
:0E242E000D250D00000000C00C0D0D250D0049
:00000001FF
