:100000000C9461000C947E000C947E000C947E0095
:100010000C947E000C947E000C947E000C947E0068
:100020000C947E000C947E000C947E000C947E0058
:100030000C947E000C947E000C947E000C947E0048
:100040000C9421010C947E000C947E000C947E0094
:100050000C947E000C947E000C947E000C947E0028
:100060000C947E000C947E00000000002400270009
:100070002A0000000000250028002B0000000000DE
:1000800023002600290004040404040404040202DA
:100090000202020203030303030301020408102007
:1000A0004080010204081020010204081020000012
:1000B0000007000201000003040600000000000029
:1000C000000011241FBECFEFD8E0DEBFCDBF11E08E
:1000D000A0E0B1E0EEE1F6E002C005900D92AA309A
:1000E000B107D9F711E0AAE0B1E001C01D92A33138
:1000F000B107E1F70E941A010C940D030C94000063
:10010000A0E0B0E0E6E8F0E00C94DE02EC01A880AC
:10011000B980CA80DB80A114B104C104D10441F4C8
:1001200084E2A82E89EDB82E8BE5C82E87E0D82E64
:10013000C601B5012DE133EF41E050E00E94990284
:1001400027EA31E440E050E00E947A027B018C0112
:10015000C601B5012DE133EF41E050E00E94990264
:10016000CA01B9012CEE34EF4FEF5FEF0E947A0223
:100170006E0D7F1D801F911F97FF04C0615070405E
:1001800080409048688379838A839B839B01AC017C
:100190005F77B901CA01CDB7DEB7EAE00C94FA0285
:1001A0000E948000089580E091E00E948000089500
:1001B0006093000170930101809302019093030109
:1001C00008951F9361E070E080E090E024E030E06B
:1001D00040E050E00E945C02162F165F812F61E024
:1001E0000E94ED016AEF70E080E090E00E946901FA
:1001F000812F60E00E94ED016AEF70E080E090E006
:100200002CE231E040E050E00E945C020E94690173
:100210001F9108958091040161E00E94CD018091B9
:10022000060161E00E94CD018091080161E00E9419
:10023000CD0108950E9493010E940A010E94E100ED
:10024000FDCF1F920F920FB60F9211242F933F9361
:100250008F939F93AF93BF9380910E0190910F0165
:10026000A0911001B0911101309112010196A11DD0
:10027000B11D232F2D5F2D3720F02D570196A11D85
:10028000B11D2093120180930E0190930F01A09352
:100290001001B093110180910A0190910B01A0917E
:1002A0000C01B0910D010196A11DB11D80930A01B1
:1002B00090930B01A0930C01B0930D01BF91AF91EE
:1002C0009F918F913F912F910F900FBE0F901F9094
:1002D0001895EF92FF920F931F937B018C018FB7BC
:1002E000F89440910E0150910F01609110017091AE
:1002F00011018FBF2FB7F89480910E0190910F01DB
:10030000A0911001B09111012FBF841B950BA60B7A
:10031000B70BE816F9060A071B0760F71F910F9144
:10032000FF90EF900895789484B5826084BD84B581
:10033000816084BD85B5826085BD85B5816085BDE0
:10034000EEE6F0E0808181608083E1E8F0E080818A
:1003500082608083808181608083E0E8F0E080813A
:1003600081608083E1EBF0E0808184608083E0EB5A
:10037000F0E0808181608083EAE7F0E08081846042
:10038000808380818260808380818160808380819E
:10039000806880831092C1000895282F30E0C90141
:1003A00086569F4FFC0194912A573F4FF901849143
:1003B000882391F0E82FF0E0EE0FFF1FE859FF4F80
:1003C000A591B491662329F48C91909589238C93FF
:1003D00008958C91892B8C930895482F50E0CA0181
:1003E00082559F4FFC012491CA0186569F4FFC0104
:1003F00094914A575F4FFA0134913323D1F122236C
:1004000031F1233021F4809180008F7705C02430B2
:1004100031F4809180008F7D8093800018C021305E
:1004200019F484B58F7704C0223021F484B58F7D10
:1004300084BD0DC0263021F48091B0008F7705C0B7
:10044000273029F48091B0008F7D8093B000E32F96
:10045000F0E0EE0FFF1FEE58FF4FA591B491662319
:1004600029F48C91909589238C9308958C91892BF4
:100470008C930895EF92FF920F931F937B018C0151
:10048000611571058105910529F420E030E040E017
:1004900050E00BC00E94D300A80197010E9499026E
:1004A000AC01CB01DA019C01AD01B901CA011F9178
:1004B0000F91FF90EF900895EF92FF920F931F938B
:1004C0007B018C01621773078407950764F4261B70
:1004D000370B480B590BCA01B9010E943A02E60ECC
:1004E000F71E081F191FB701C8011F910F91FF9038
:1004F000EF900895629FD001739FF001829FE00DFD
:10050000F11D649FE00DF11D929FF00D839FF00D92
:10051000749FF00D659FF00D9927729FB00DE11D3E
:10052000F91F639FB00DE11DF91FBD01CF0111241B
:10053000089597FB092E05260ED057FD04D014D040
:100540000AD0001C38F450954095309521953F4FC6
:100550004F4F5F4F0895F6F7909580957095619590
:100560007F4F8F4F9F4F0895A1E21A2EAA1BBB1BEE
:10057000FD010DC0AA1FBB1FEE1FFF1FA217B3076F
:10058000E407F50720F0A21BB30BE40BF50B661F85
:10059000771F881F991F1A9469F760957095809549
:1005A00090959B01AC01BD01CF0108952F923F9220
:1005B0004F925F926F927F928F929F92AF92BF9273
:1005C000CF92DF92EF92FF920F931F93CF93DF931F
:1005D000CDB7DEB7CA1BDB0B0FB6F894DEBF0FBE7C
:1005E000CDBF09942A88398848885F846E847D84C9
:1005F0008C849B84AA84B984C884DF80EE80FD80CB
:100600000C811B81AA81B981CE0FD11D0FB6F89440
:0E061000DEBF0FBECDBFED010895F894FFCF01
:0A061E00010000000D000C000B00AD
:00000001FF
