:100000000C94AD000C94D5000C94D5000C946F05A5
:100010000C9499050C94C3050C94D5000C94D50050
:100020000C94D5000C94D5000C94D5000C94D500FC
:100030000C94D5000C94D5000C94D5000C94D500EC
:100040000C94860D0C94D5000C94AD0E0C94D50038
:100050000C94D5000C94D5000C94D5000C94D500CC
:100060000C9452030C94D50000C201000100110051
:1000700011000C0000E100000A002500250021000D
:10008000009600001900390039003600127A00008D
:100090001F004600460044008070000022004D0012
:1000A0004D004A00004B00003600750075007200DC
:1000B000403800004A009C009C0099008025000008
:1000C0007200EC00EC00E900C0120000E900DA0167
:1000D000DA01D70160090000D701B603B603B30304
:1000E000B0040000B3036E076E076B072C0100001D
:1000F000DC0EC11DC11DBE1D000000002400270034
:100100002A0000000000250028002B00000000004D
:100110002300260029000404040404040404020249
:100120000202020203030303030301020408102076
:100130004080010204081020010204081020000081
:100140000007000201000003040600000000000098
:1001500000001F02A80CF60FA10C11241FBECFEF48
:10016000D8E0DEBFCDBF11E0A0E0B1E0ECEDF3E2FE
:1001700002C005900D92A033B107D9F712E0A0E3B9
:10018000B1E001C01D92AC3BB107E1F711E0C8E559
:10019000D1E004C02297FE010E94DD11C235D107D3
:1001A000C9F70E947F0D0C94E1110C9400000F938D
:1001B0001F93CF93DF93689F8001699F100D789FF5
:1001C000100D1124C8010E94F300EC01009729F0E2
:1001D00060E070E0A8010E94F501CE01DF91CF91AF
:1001E0001F910F910895CF93DF93BC018230910549
:1001F00010F462E070E0A091BA02B091BB02ED0190
:10020000E0E0F0E040E050E021C08881998186176D
:10021000970769F48A819B81309719F093838283D1
:1002200004C09093BB028093BA02FE0134C06817E9
:10023000790738F44115510519F08417950708F42A
:10024000AC01FE018A819B819C01E9012097E9F6BE
:1002500041155105A9F1CA01861B970B049708F4B3
:10026000BA01E0E0F0E02AC08D919C9111978417CB
:100270009507F9F46417750781F412968D919C9196
:100280001397309719F09383828304C09093BB0235
:100290008093BA02FD0132964CC0CA01861B970BAF
:1002A000FD01E80FF91F6193719302978D939C9361
:1002B00040C0FD01828193819C01D9011097A1F674
:1002C0008091B8029091B902892B41F48091150177
:1002D000909116019093B9028093B8024091170152
:1002E000509118014115510541F44DB75EB7809109
:1002F000130190911401481B590B2091B8023091C1
:10030000B902CA01821B930B8617970780F0AB01D5
:100310004E5F5F4F8417950750F0420F531F509365
:10032000B9024093B802F9016193719302C0E0E011
:10033000F0E0CF01DF91CF910895CF93DF93009745
:1003400009F450C0EC0122971B821A82A091BA02D4
:10035000B091BB02109709F140E050E0AC17BD0727
:1003600008F1BB83AA83FE0121913191E20FF31FB3
:10037000AE17BF0779F48D919C911197280F391F03
:100380002E5F3F4F3983288312968D919C9113974E
:100390009B838A834115510571F4D093BB02C093AE
:1003A000BA0220C012968D919C911397AD010097CF
:1003B00011F0DC01D3CFFA01D383C28321913191B3
:1003C000E20FF31FCE17DF0769F488819981280FA8
:1003D000391F2E5F3F4FFA01318320838A819B8131
:1003E00093838283DF91CF910895DC0101C06D93E7
:1003F00041505040E0F7089581E0809339016093C7
:100400003401109237011092380108958091330120
:1004100090913201891B08959091320180913301AE
:10042000981710F080E00895E0913001F0913101CB
:10043000E90FF11D80819F5F909332010895089527
:10044000DF93CF930F92CDB7DEB7698380913901E7
:100450008823A9F0809138018032B0F4809137016F
:10046000E0913501F0913601E80FF11D6083809134
:1004700037018F5F809337018093380105C0CE012B
:10048000019661E00E9435030F90CF91DF910895AE
:10049000EF92FF920F931F93CF93DF937C01042F72
:1004A00080913901882359F0EB0110E005C0C701A4
:1004B00069910E9420021F5F1017C8F304C0CB018E
:1004C000642F0E943503DF91CF911F910F91FF9010
:1004D000EF900895DB010D900020E9F71197A61B1E
:1004E000B70B4A2F0E944802089560913501709120
:1004F0003601809134014091380121E00E94F002E0
:100500001092370110923801109239010895862F08
:100510006091300170913101413208F040E20E9457
:10052000B802109232018093330108950E9487022D
:10053000089580E290E061E070E00E94D70080932F
:10054000300190933101109232011092330180E218
:1005500090E061E070E00E94D700809335019093B5
:10056000360110923701109238010E94D404089588
:10057000982F413210F040E031C080913B01882338
:10058000E1F781E080933B018FEF80934C01109263
:1005900043014150409344014F5F990F9160909304
:1005A0003C0185EE8093BC0080913B018130E1F3FA
:1005B00080914301841710F440914301A0914101BF
:1005C000B091420120E030E007C0FB01E20FF31FD1
:1005D0008D9180832F5F3F4F2417B8F3842F0895A8
:1005E0001F93582F122F413210F081E03CC08091B0
:1005F0003B018823E1F782E080933B018FEF8093FA
:100600004C011092430140934401A0914101B091EB
:100610004201FB0102C081918D938E2F861B8417AE
:10062000D0F3852F90E0880F991F80933C0185EED1
:100630008093BC00112321F080913B018230E1F3D3
:1006400080914C018F3F11F480E00DC080914C01EE
:10065000803211F482E007C080914C01803311F0A8
:1006600084E001C083E01F910895482F613210F0AB
:1006700081E0089580913B01843011F082E008957B
:1006800060934801A0914501B0914601842F9C01DF
:10069000F90102C081918D938E2F841B8617D0F3B0
:1006A00080E008951F920F920FB60F9211242F939E
:1006B0003F934F935F936F937F938F939F93AF93EA
:1006C000BF93EF93FF938091B90090E0887F907083
:1006D0008036910509F4E2C081369105CCF5883267
:1006E000910509F47BC089329105B4F480319105FC
:1006F00009F46FC0813191053CF4009709F438C1C9
:10070000089709F040C165C08831910509F466C0B9
:10071000809709F038C17FC08034910509F4A3C0E7
:100720008134910544F48033910509F47FC0C89762
:1007300009F029C186C08035910509F486C0883545
:10074000910509F495C08834910509F01CC19EC03B
:100750008839910509F404C189399105ECF4883789
:10076000910509F49BC0893791054CF488369105B1
:1007700009F494C08037910509F005C18FC088380D
:10078000910509F4EDC08039910509F48DC08038D8
:10079000910509F0F8C088C0803B910509F4B2C00A
:1007A000813B91054CF4803A910509F491C0883A57
:1007B000910509F0E8C0A6C0803C910509F4D4C0B9
:1007C000883C910509F4D0C0883B910509F0DBC055
:1007D000B1C080913C018093BB00C0C090914301A7
:1007E00080914401981778F490914301E091410180
:1007F000F0914201E90FF11D80818093BB009F5F62
:1008000090934301ABC085ED8093BC008091BC0008
:1008100084FDFCCFB6C080E280934C0185ED8093CF
:10082000BC008091BC0084FDFCCFABC080E3809312
:100830004C0185ED8093BC008091BC0084FDFCCF11
:10084000A0C088E380934C018FC0809143019091B8
:10085000BB00E0914101F0914201E80FF11D90834E
:100860008F5F80934301909143018091440174C054
:10087000809143019091BB00E0914101F0914201D0
:10088000E80FF11D90838F5F8093430185ED809386
:10089000BC008091BC0084FDFCCF73C083E08093DA
:1008A0003B0110924B015AC080914B01803208F0FD
:1008B00057C080914B019091BB00E0914901F091AC
:1008C0004A01E80FF11D90838F5F80934B0146C072
:1008D00080914B01803248F480914B01E0914901B5
:1008E000F0914A01E80FF11D108260914B01E091F7
:1008F0003F01F09140018091490190914A0170E0DF
:10090000099532C084E080933B0110924701109218
:100910004801E0913D01F0913E0109958091480127
:10092000882341F481E080934801E0914501F091F2
:100930004601108290914701E0914501F0914601F6
:10094000E90FF11D80818093BB009F5F9093470169
:100950009091470180914801981710F485EC01C0EF
:1009600085E88093BC000FC085EC8093BC0009C073
:1009700010924C0185ED8093BC008091BC0084FDF9
:10098000FCCF10923B01FF91EF91BF91AF919F91EE
:100990008F917F916F915F914F913F912F910F9028
:1009A0000FBE0F901F90189510923B01449A459AE4
:1009B000E9EBF0E080818E7F808380818D7F808372
:1009C00088E48093B80085E48093BC0080E290E0E6
:1009D00061E070E00E94D700809341019093420152
:1009E00080E290E061E070E00E94D70080934501D2
:1009F0009093460180E290E061E070E00E94D700B1
:100A00008093490190934A0108950F931F93CF93C8
:100A1000DF93FC01718976957170A481B581938112
:100A2000772329F08C91892309F454C004C08C9158
:100A3000892309F04FC08185928520E001972FEF2F
:100A40008F3F9207D9F7C385D485A481B5811381DF
:100A500060E031E040E050E000E0CE01202F01975F
:100A60002FEF8F3F9207D9F78C91812311F0632BE1
:100A700003C0832F80956823330F4F5F5F4F48304B
:100A8000510559F78585968520E001972FEF8F3F17
:100A90009207D9F77111609580918F012091900193
:100AA00090E001968F73907030E08217930779F091
:100AB000E0918F01F0E0E15BFE4F608380918F0158
:100AC00090E001968F73907080938F0103C08189AD
:100AD0008160818BDF91CF911F910F9108951F92BB
:100AE0000F920FB60F9211242F933F934F935F9362
:100AF0006F937F938F939F93AF93BF93EF93FF93E6
:100B000080914D0190914E01009711F00E940505D2
:100B1000FF91EF91BF91AF919F918F917F916F91D5
:100B20005F914F913F912F910F900FBE0F901F90AB
:100B300018951F920F920FB60F9211242F933F9387
:100B40004F935F936F937F938F939F93AF93BF93D5
:100B5000EF93FF9380914D0190914E01009711F01A
:100B60000E940505FF91EF91BF91AF919F918F91E9
:100B70007F916F915F914F913F912F910F900FBE99
:100B80000F901F9018951F920F920FB60F9211247D
:100B90002F933F934F935F936F937F938F939F9385
:100BA000AF93BF93EF93FF9380914D0190914E01CE
:100BB000009711F00E940505FF91EF91BF91AF9151
:100BC0009F918F917F916F915F914F913F912F9165
:100BD0000F900FBE0F901F901895CF92DF92EF925B
:100BE000FF920F931F93CF93DF93EC017A018B0158
:100BF000188A1F861E861D861C861B861A861986E5
:100C000020E030E06901CC0CDD1CC20ED31EB60121
:100C1000660F771F660F771FAB0148595F4FFA01C8
:100C200085919591A591B4918E159F05A007B10767
:100C3000E9F4FB01E459FF4F859194919A878987E4
:100C4000FB01E259FF4F859194919C878B87FB01B3
:100C5000E059FF4F859194919E878D87FB01EE5857
:100C6000FF4F85919491988B8F8706C02F5F3F4FE0
:100C70002C30310509F0C6CF8D859E85892B09F46E
:100C800049C04A81463108F03DC090916800483023
:100C900010F484E005C04E3010F082E001C081E025
:100CA000892B80936800483028F4EDE6F0E0ADE64B
:100CB000B0E00BC04E3028F0ECE6F0E0ACE6B0E07F
:100CC00004C0EBE6F0E0ABE6B0E05081483040F421
:100CD00081E090E002C0880F991F4A95E2F710C0AA
:100CE000242F30E04E3018F42850304002C02E50EF
:100CF000304081E090E002C0880F991F2A95E2F70A
:100D0000852B8C938F85988920E001972FEF8F3F5B
:100D10009207D9F780914D0190914E018C179D0754
:100D200081F089898E7F898B9FB7F89410928F010B
:100D300080918F0180939001D0934E01C0934D011B
:100D40009FBFDF91CF911F910F91FF90EF90DF90A8
:100D5000CF900895FC014281463180F5483028F457
:100D6000EDE6F0E0ADE6B0E00BC04E3028F4EBE687
:100D7000F0E0ABE6B0E004C0ECE6F0E0ACE6B0E0FA
:100D80005081483040F481E090E002C0880F991F04
:100D90004A95E2F710C0242F30E04E3018F4285066
:100DA000304002C02E50304081E090E002C0880FF9
:100DB000991F2A95E2F7809585238C930895FC016D
:100DC0008FE191E091838083CF010E94AA0608956C
:100DD000FC0180914D0190914E018E179F0789F083
:100DE00081898E7F818B9FB7F89410928F018091BB
:100DF0008F0180939001F0934E01E0934D019FBFCE
:100E000006C09091900180918F01981719F42FEFEF
:100E10003FEF0FC0E0919001F0E0E15BFE4F2081D9
:100E20008091900190E001968F7390708093900173
:100E300030E0C9010895FC0180914D0190914E016F
:100E40008E179F0791F081898E7F818B9FB7F894D1
:100E500010928F0180918F0180939001F0934E0149
:100E6000E0934D019FBF80E0089580918F01209114
:100E7000900190E0805C9F4F821B910960E470E0DC
:100E80000E94771108950F931F93DC011F968D9197
:100E90009C915097892B09F4B6C080914D01909197
:100EA0004E018A179B07A1F051968C9151978E7F26
:100EB00051968C9351979FB7F89410928F0180911F
:100EC0008F0180939001B0934E01A0934D019FBF7D
:100ED0000FB7F89451968C9151971796ED91FC911C
:100EE000189716962C91169781FF88C08081822BC7
:100EF00080831F968D919C915097059620E00197D5
:100F00002FEF8F3F9207D9F751968C91519781FF20
:100F100035C031E040E050E070E010E0832F90E019
:100F2000862397231796ED91FC91189716962C918E
:100F30001697892B29F0808120952823208303C0D0
:100F40008081822B80831F968D919C915097212FB9
:100F500001972FEF8F3F9207D9F7330F4F5F5F4F06
:100F600048305105D9F61796ED91FC91189790816C
:100F700016968C9116978095892333C031E040E016
:100F800050E070E010E0832F90E0862397231796BF
:100F9000ED91FC91189716962C911697892B21F0BC
:100FA0008081822B808304C0808120952823208328
:100FB0001F968D919C915097212F01972FEF8F3F76
:100FC0009207D9F7330F4F5F5F4F48305105D9F67D
:100FD0001796ED91FC911897808116969C91169723
:100FE000892B80830FBF1F968D919C91509720E095
:100FF00001972FEF8F3F9207D9F705C08081209589
:101000002823208376CF1F910F9108951F93CF93AC
:10101000DF93EC01162F862F60E00E94400E898935
:1010200081FD04C0812F61E00E94600E1A83212F90
:1010300030E0C901865D9E4FFC0184918B832A5E5E
:101040003E4FF9016491E62FF0E0EE0FFF1FE45FE1
:10105000FE4F859194919D838C83DF91CF911F9159
:101060000895FF920F931F938C01F62E862F61E057
:101070000E94400E8F2D61E00E94600E8F2D90E047
:10108000FC01E65DFE4FE491D8011696EC931697AD
:101090008A5E9E4FFC016491E62FF0E0EE0FFF1F89
:1010A000EE5FFE4F8591949118969C938E931797BF
:1010B0001F910F91FF900895FF920F931F938C0142
:1010C000F62E8FE191E0F8019183808312861186DC
:1010D0001486138616861586108A178681892170D4
:1010E000220F8C7F822B818BC801642F0E943108D4
:1010F000C8016F2D0E9406081F910F91FF9008955F
:10110000FC012FEF3FEF4FEF5FEF208331834283EE
:10111000538310861186128613868FEF99ECAAE905
:10112000BBE3808B918BA28BB38B808F918FA28F2F
:10113000B38F80A391A3A2A3B3A380A791A7A2A7D3
:10114000B3A780AB91ABA2ABB3AB20AF31AF42AF93
:1011500053AFE05CFF4F2083318342835383389643
:1011600011921082709682E08193119211921192E5
:101170001192119211921192119211921182108278
:10118000799710820895EF92FF920F931F93CF9358
:10119000DF939C01EE24FC01E65BFF4F80818D32E2
:1011A00031F4EE24E394E901C55BDF4F01C0EF01A8
:1011B0008E0120E030E040E050E018C0CA01B901E3
:1011C0002AE030E040E050E00E9458112F2D3327F4
:1011D00027FD3095432F532F20533040404050403F
:1011E000260F371F481F591F0F5F1F4FF801F08050
:1011F0008F2D80538A3010F3CA01B90124E630E004
:1012000040E050E00E9458119B01AC0101C02196C2
:101210009881892F80538A30D0F39E3229F59981A5
:10122000892F80538A3000F58AE09802C00111248A
:10123000805E9140AA2797FDA095BA2F280F391FED
:101240004A1F5B1F9A81892F80538A3068F4892F47
:10125000992787FD9095C097AA2797FDA095BA2F4B
:10126000280F391F4A1F5B1FEE2039F0509540951B
:10127000309521953F4F4F4F5F4FB901CA01DF9124
:10128000CF911F910F91FF90EF9008954F925F9231
:101290006F927F928F929F92AF92BF92CF92DF9286
:1012A000EF92FF920F931F93CF93DF932AE4822E46
:1012B000912C880E991EE40120E030E040E050E0DF
:1012C00017C0CA01B9012AE030E040E050E00E94B6
:1012D0005811212F332727FD3095432F532F2053AB
:1012E000304040405040260F371F481F591F21965D
:1012F0001881812F80538A3020F3722E632E542E52
:10130000452EB901CA0124E630E040E050E00E94D9
:101310008A1120E137E240E050E00E9458115B0161
:101320006C0103C00894811C911CF4019081892FE9
:1013300080538A30B8F39E3269F588EEE82E83E058
:10134000F82E012D112D1DC0332727FD3095205378
:101350003040442737FD4095542FC801B7010E9403
:101360005811A60EB71EC81ED91EC801B7012AE023
:1013700030E040E050E00E948A11C901DA017C01AE
:101380008D010894811C911CF4012081822F8053CF
:101390008A30D0F2C601B50126E030E040E050E0EE
:1013A0000E948A1179018A01672D762D852D942D51
:1013B00024E630E040E050E00E948A11CA01B90101
:1013C00020EA36E841E050E00E945811E60EF71E90
:1013D000081F191FB701C801DF91CF911F910F910D
:1013E000FF90EF90DF90CF90BF90AF909F908F9045
:1013F0007F906F905F904F900895FF920F931F938F
:10140000CF93DF93EC01C75BDF4F8881C954D04095
:10141000882309F4CFC0C65BDF4F9881CA54D040FF
:10142000892F8154863038F4292F332727FD3095B2
:10143000275330400CC0292F332727FD3095915674
:10144000963018F42755304002C020533040C55B19
:10145000DF4F4881CB54D040842F8154863030F404
:10146000842F992787FD9095C7970BC0842F9927C4
:1014700087FD90954156463018F48755904001C03D
:10148000C09744E0220F331F4A95E1F7982F920F3F
:10149000C85BDF4F8881C854D040981709F081C0DD
:1014A000C45ADF4F8881CC55D040882309F4ACC1A1
:1014B000FE01EF59FF4F80819181019691838083D6
:1014C0008CAD9DADAEADBFAD88AF99AFAAAFBBAF90
:1014D000FE01E05CFF4FCC5BDF4F88819981AA81E0
:1014E000BB8180839183A283B38365968881C9552C
:1014F000D0408823A1F1813009F051C08C819D81B9
:10150000AE81BF8188839983AA83BB838C859D85A7
:10151000AE85BF8588879987AA87BB878C899D8977
:10152000AE89BF89888B998BAA8BBB8B8C8D9D8D47
:10153000AE8DBF8D888F998FAA8FBB8F8CA59DA5EF
:10154000AEA5BFA588A799A7AAA7BBA78CA99DA947
:10155000AEA9BFA988AB99ABAAABBBAB20C08CA18D
:101560009DA1AEA1BFA188A399A3AAA3BBA38C816F
:101570009D81AE81BF8188839983AA83BB838C8937
:101580009D89AE89BF89888B998BAA8BBB8B8C8DEB
:101590009D8DAE8DBF8D888F998FAA8FBB8F81E077
:1015A00034C1FE01ED59FF4F8081918101969183F5
:1015B00080832AC1C65ADF4F3881CA55D0403323B1
:1015C00021F59E01265B3F4FD901E0E0F1E002C02A
:1015D000119631969C91992339F080819817C1F327
:1015E000D901E6E0F1E006C0C75ADF4F81E016C13D
:1015F000119631969C91992321F080819817C1F31F
:101600000AC1C75ADF4F1882FFC0C75ADF4F88810F
:10161000C955D040823009F4F7C0C65BDF4F28813E
:10162000CA54D040222309F4EFC0882319F084E67D
:1016300090E002C088EC90E0830F911D8C369105FC
:1016400009F49FC08D369105ECF48836910509F4B4
:1016500062C0893691056CF48636910509F443C061
:10166000873691050CF047C08536910509F0CCC04E
:101670002CC08A36910509F469C08B3691050CF0AF
:1016800078C05CC08B3C910509F445C08C3C910549
:101690005CF4893C9105C9F08A3C910564F58D366E
:1016A000910509F0B1C075C08D3C910509F44EC09B
:1016B0008D3C91050CF442C08E3C910509F494C018
:1016C000813D910509F0A0C098C0CE010E94C308D9
:1016D0006C837D838E839F830E94CE0D6CAF7DAF24
:1016E0008EAF9FAF91C0FE01E45AFF4F10822134AC
:1016F00009F08AC07FC0CE010E9446096C8B7D8BA9
:101700008E8B9F8B0E94CE0DCC5BDF4F68837983DD
:101710008A839B8379C0233509F076C08C899D89A3
:10172000AE89BF89B095A095909581959F4FAF4F99
:10173000BF4F8C8B9D8BAE8BBF8B66C0CE010E9442
:1017400046096C8F7D8F8E8F9F8F5EC0273509F085
:101750005BC08C8D9D8DAE8DBF8DB095A095909505
:1017600081959F4FAF4FBF4F8C8F9D8FAE8FBF8F97
:101770004BC0CE010E94C3086CA77DA78EA79FA770
:1017800043C0CE010E94C3086CAB7DAB8EAB9FAB58
:101790003BC08E01065B1F4F20E030E040E050E090
:1017A00018C0CA01B9012AE030E040E050E00E94D0
:1017B00058112F2D332727FD3095432F532F2053BA
:1017C000304040405040260F371F481F591F0F5FC1
:1017D0001F4FF801F0808F2D80538A3010F32C8733
:1017E0003D874E875F8710C0FE01E45AFF4F10828D
:1017F000213354F081E0808307C0CE010E94C308EA
:101800006CA37DA38EA39FA380E0DF91CF911F9156
:101810000F91FF900895C75ADF4F82E08883F4CF7D
:101820001F93CF93DF93EC01162FFC01E35AFF4F78
:1018300080819181A281B3810196A11DB11D808318
:101840009183A283B3836432A1F1DE01A55ABF4F15
:1018500065322CF46A3069F06D30C9F50AC06A321D
:1018600041F06C32A1F5FE01E85BFF4F80818627D5
:1018700080838C918F3010F090E00AC0FE01E80F59
:10188000F11DE65BFF4F1082CE010E94FD09982FEB
:10189000FE01E65AFF4F80818F5F8083C55ADF4F7C
:1018A0001882FE01729710821A3251F581E080830E
:1018B00027C0C55ADF4F18821A9262971882619624
:1018C00082E08883609718826396188218C08C9192
:1018D0008E3040F4FE01E80FF11DE65BFF4F1083F0
:1018E0008F5F8C93C75BDF4F8881C954D0408823BA
:1018F00031F4FE01E85BFF4F80818127808390E017
:10190000892FDF91CF911F9108958130910579F44E
:101910006F5F7F4FA9F487E991E00E9480088EEF06
:1019200091E062E043E020E00E945C080895892B8A
:1019300039F46F5F7F4F21F48EEF91E00E94DF0654
:10194000089580E090E06FEF7FEF0E94850C08958E
:1019500081E090E06FEF7FEF0E94850C0895CF93B8
:10196000DF9360919101709192018AE391E00E946E
:10197000FC018AE391E06CE071E00E946A028AE374
:1019800091E00E9475026AE070E080E090E00E94C1
:10199000DC0D60919101709192018AE391E042E047
:1019A00050E00E949602C5E9D1E08AE391E00E94EE
:1019B00006028823A9F181E0C739D80789F18AE3B3
:1019C00091E00E940C028993F0CF8EEF91E00E948B
:1019D000E806682F87E991E00E94100C882301F146
:1019E0008091A7019091A801A091A901B091AA01AD
:1019F0008093100290931102A0931202B0931302ED
:101A00008091AF019091B001A091B101B091B2016C
:101A10008093140290931502A0931602B0931702BC
:101A20008EEF91E00E941B07882379F69091950133
:101A300080E020919601820F911D909394018093F4
:101A40009301409110025091110260911202709125
:101A5000130285EA92E00E94291185EA92E06EE085
:101A600071E00E946710409114025091150260913C
:101A700016027091170285EA92E00E94291185EA08
:101A800092E06EE071E00E94671080919301909166
:101A900094016AE070E00E94771185EA92E00E946A
:101AA000501185EA92E060E171E00E94861064EFD7
:101AB00071E080E090E00E94DC0DDF91CF9108950D
:101AC0008091190190911A019595879590939201B3
:101AD0008093910185EA92E040E052EC61E070E091
:101AE0000E94EA0E8EEF91E040EC52E160E070E07F
:101AF0000E94ED058AE391E00E94990208950E94F8
:101B0000060E0E94600D0E94AF0CFDCF1F920F9237
:101B10000FB60F9211242F933F938F939F93AF9300
:101B2000BF9380911C0290911D02A0911E02B09162
:101B30001F02309120020196A11DB11D232F2D5FA0
:101B40002D3720F02D570196A11DB11D20932002A5
:101B500080931C0290931D02A0931E02B0931F025B
:101B60008091180290911902A0911A02B0911B0263
:101B70000196A11DB11D8093180290931902A093A4
:101B80001A02B0931B02BF91AF919F918F913F9129
:101B90002F910F900FBE0F901F9018958FB7F8944C
:101BA00020911C0230911D0240911E0250911F0293
:101BB0008FBFB901CA010895EF92FF920F931F934F
:101BC0007B018C018FB7F89440911C0250911D024B
:101BD00060911E0270911F028FBF2FB7F894809101
:101BE0001C0290911D02A0911E02B0911F022FBFF6
:101BF000841B950BA60BB70BE816F9060A071B0703
:101C000060F71F910F91FF90EF900895789484B53D
:101C1000826084BD84B5816084BD85B5826085BDE8
:101C200085B5816085BDEEE6F0E0808181608083CE
:101C3000E1E8F0E080818260808380818160808340
:101C4000E0E8F0E0808181608083E1EBF0E080817A
:101C500084608083E0EBF0E0808181608083EAE74C
:101C6000F0E08081846080838081826080838081D5
:101C7000816080838081806880831092C100089594
:101C8000282F30E0C901865D9E4FFC0194912A5EA9
:101C90003E4FF9018491882391F0E82FF0E0EE0F98
:101CA000FF1FE850FF4FA591B491662329F48C9152
:101CB000909589238C9308958C91892B8C9308950A
:101CC000482F50E0CA01825C9E4FFC012491CA015A
:101CD000865D9E4FFC0194914A5E5E4FFA013491FD
:101CE0003323D1F1222331F1233021F4809180007C
:101CF0008F7705C0243031F4809180008F7D8093F0
:101D0000800018C0213019F484B58F7704C02230C8
:101D100021F484B58F7D84BD0DC0263021F48091DF
:101D2000B0008F7705C0273029F48091B0008F7DF7
:101D30008093B000E32FF0E0EE0FFF1FEE5FFE4F49
:101D4000A591B491662329F48C91909589238C9365
:101D500008958C91892B8C9308951F920F920FB642
:101D60000F9211242F933F934F935F936F937F9321
:101D70008F939F93AF93BF93EF93FF934091C600D0
:101D8000E091A102F091A202CF01019660E870E01B
:101D90000E9477119C018091A3029091A4022817C0
:101DA000390739F0EF5DFD4F40833093A202209355
:101DB000A102FF91EF91BF91AF919F918F917F9180
:101DC0006F915F914F913F912F910F900FBE0F90A8
:101DD0001F9018955F926F927F928F929F92AF9211
:101DE000BF92CF92DF92EF92FF920F931F93CF9308
:101DF000DF93EC013A014B01413482E458078FE054
:101E0000680780E078070CF07FC060E874E88EE136
:101E100090E0A40193010E94AC1121503040404059
:101E20005040CA01B90122E030E040E050E00E9499
:101E3000AC1159016A01A601950120953095409594
:101E4000509594E0220F331F441F551F9A95D1F7E8
:101E500060E074E284EF90E00E94AC11CA01B90125
:101E60002FEF30E040E050E00E945811A4019301B0
:101E70000E94AC11C90181509F4F181619061CF41D
:101E8000522E5A9403C055245394521A60E079E0BC
:101E90008DE390E0A40193010E94AC1121503040E9
:101EA00040405040CA01B90122E030E040E050E03B
:101EB0000E94AC11209530954095509583E0220FFB
:101EC000331F441F551F8A95D1F760E074E284EFF9
:101ED00090E00E94AC11CA01B9012FEF30E040E060
:101EE00050E00E945811A40193010E94AC11C90155
:101EF00081509F4F181619061CF4822F815002C082
:101F000081E0821B851500F5E885F98581E090E088
:101F10000A8802C0880F991F0A94E2F7808360E064
:101F200079E08DE390E0A40193010E94AC1121506F
:101F3000304040405040CA01B90122E030E040E06A
:101F400050E00E94AC1104C0E885F985108295012B
:101F5000EC81FD813083EE81FF812083EA85FB8562
:101F6000208141E050E0CA010E8402C0880F991F11
:101F70000A94E2F7282B2083EA85FB852081CA0199
:101F80000F8402C0880F991F0A94E2F7282B208340
:101F9000EA85FB858081088802C0440F551F0A949A
:101FA000E2F7842B8083DF91CF911F910F91FF90F7
:101FB000EF90DF90CF90BF90AF909F908F907F90E9
:101FC0006F905F900895FC01A085B18521898C9167
:101FD00090E0022E02C0959587950A94E2F780FF63
:101FE000F6CF0484F585E02D6083089589E291E0C1
:101FF0009093A6028093A50281E292E09093A802BA
:102000008093A70285EC90E09093AA028093A902A6
:1020100084EC90E09093AC028093AB0280EC90E073
:102020009093AE028093AD0281EC90E09093B00269
:102030008093AF0286EC90E09093B2028093B1025D
:1020400084E08093B30283E08093B40287E08093BE
:10205000B50285E08093B60281E08093B7020895CF
:102060000F931F93CF93DF938C01EB0109C021964F
:10207000D801ED91FC910190F081E02DC801099506
:1020800068816623A1F7DF91CF911F910F91089589
:10209000EF92FF920F931F93CF93DF938C017B01FD
:1020A000EA010CC0D7016D917D01D801ED91FC9141
:1020B0000190F081E02DC80109952197209791F7B3
:1020C000DF91CF911F910F91FF90EF900895DC0168
:1020D000ED91FC910280F381E02D099508950F9315
:1020E0001F938C01DC01ED91FC910190F081E02DBA
:1020F0006DE00995D801ED91FC910190F081E02D02
:10210000C8016AE009951F910F9108950F931F93DD
:102110008C010E946710C8010E946F101F910F91DF
:1021200008952F923F924F925F926F927F928F927B
:102130009F92AF92BF92CF92DF92EF92FF920F9356
:102140001F93DF93CF93CDB7DEB7A0970FB6F89468
:10215000DEBF0FBECDBF1C016A017B0141155105D9
:102160006105710549F4DC01ED91FC910190F0816C
:10217000E02D60E3099554C0882499245401422E2F
:1021800055246624772401E010E00C0F1D1F080D74
:10219000191DC701B601A30192010E948A11F8011D
:1021A00060830894811C911CA11CB11CC701B6015D
:1021B000A30192010E948A11C901DA016C017D011B
:1021C000C114D104E104F104F1F681E0E82EF12C10
:1021D000EC0EFD1EE80CF91C3E010894611C711CFC
:1021E000D501C4010197A109B1096C01C818D9082A
:1021F00014C0F601EE0DFF1D60816A3010F4605DC1
:1022000001C0695CD101ED91FC910190F081E02D5C
:10221000C10109950894E108F1086E147F0449F79B
:10222000A0960FB6F894DEBF0FBECDBFCF91DF9161
:102230001F910F91FF90EF90DF90CF90BF90AF90E4
:102240009F908F907F906F905F904F903F902F90D6
:102250000895EF92FF920F931F93CF93DF93EC01BA
:102260007A018B0177FF0FC0E881F9810190F0813D
:10227000E02D6DE2099510950095F094E094E11C35
:10228000F11C011D111DCE01B801A7012AE00E9419
:102290009110DF91CF911F910F91FF90EF900895D2
:1022A000AB01662757FD6095762F0E94291108958E
:1022B000629FD001739FF001829FE00DF11D649F2A
:1022C000E00DF11D929FF00D839FF00D749FF00DB6
:1022D000659FF00D9927729FB00DE11DF91F639F57
:1022E000B00DE11DF91FBD01CF011124089597FB29
:1022F000092E07260AD077FD04D049D006D0002049
:102300001AF4709561957F4F0895F6F79095819531
:102310009F4F0895A1E21A2EAA1BBB1BFD010DC001
:10232000AA1FBB1FEE1FFF1FA217B307E407F50785
:1023300020F0A21BB30BE40BF50B661F771F881F61
:10234000991F1A9469F760957095809590959B01F7
:10235000AC01BD01CF01089597FB092E05260ED0D3
:1023600057FD04D0D7DF0AD0001C38F450954095B3
:10237000309521953F4F4F4F5F4F0895F6F7909559
:102380008095709561957F4F8F4F9F4F0895AA1B41
:10239000BB1B51E107C0AA1FBB1FA617B70710F050
:1023A000A61BB70B881F991F5A95A9F78095909582
:1023B000BC01CD010895EE0FFF1F0590F491E02DB3
:1023C000099411E0C8E5D1E004C0FE010E94DD11CE
:0C23D0002296CA35D107C9F7F894FFCF58
:1023DC004750524D430047504747410041003B0096
:1023EC003B3B002000BC0200004200000000004308
:1023FC00073010481000000000E30F3010481000A8
:00000001FF
