:100000000C94AD000C94D5000C94D5000C946F05A5
:100010000C9499050C94C3050C94D5000C94D50050
:100020000C94D5000C94D5000C94D5000C94D500FC
:100030000C94D5000C94D5000C94D5000C94D500EC
:100040000C947A0D0C94D5000C94A10E0C94D50050
:100050000C94D5000C94D5000C94D5000C94D500CC
:100060000C9452030C94D50000C201000100110051
:1000700011000C0000E100000A002500250021000D
:10008000009600001900390039003600127A00008D
:100090001F004600460044008070000022004D0012
:1000A0004D004A00004B00003600750075007200DC
:1000B000403800004A009C009C0099008025000008
:1000C0007200EC00EC00E900C0120000E900DA0167
:1000D000DA01D70160090000D701B603B603B30304
:1000E000B0040000B3036E076E076B072C0100001D
:1000F000DC0EC11DC11DBE1D000000002400270034
:100100002A0000000000250028002B00000000004D
:100110002300260029000404040404040404020249
:100120000202020203030303030301020408102076
:100130004080010204081020010204081020000081
:100140000007000201000003040600000000000098
:1001500000001F02A80CEA0FA10C11241FBECFEF54
:10016000D8E0DEBFCDBF11E0A0E0B1E0E4EBF3E208
:1001700002C005900D92AA33B107D9F712E0AAE3A5
:10018000B1E001C01D92A63CB107E1F711E0C8E55E
:10019000D1E004C02297FE010E94C911C235D107E7
:1001A000C9F70E94730D0C94CD110C9400000F93AD
:1001B0001F93CF93DF93689F8001699F100D789FF5
:1001C000100D1124C8010E94F300EC01009729F0E2
:1001D00060E070E0A8010E94F501CE01DF91CF91AF
:1001E0001F910F910895CF93DF93BC018230910549
:1001F00010F462E070E0A091C402B091C502ED017C
:10020000E0E0F0E040E050E021C08881998186176D
:10021000970769F48A819B81309719F093838283D1
:1002200004C09093C5028093C402FE0134C06817D5
:10023000790738F44115510519F08417950708F42A
:10024000AC01FE018A819B819C01E9012097E9F6BE
:1002500041155105A9F1CA01861B970B049708F4B3
:10026000BA01E0E0F0E02AC08D919C9111978417CB
:100270009507F9F46417750781F412968D919C9196
:100280001397309719F09383828304C09093C5022B
:100290008093C402FD0132964CC0CA01861B970BA5
:1002A000FD01E80FF91F6193719302978D939C9361
:1002B00040C0FD01828193819C01D9011097A1F674
:1002C0008091C2029091C302892B41F48091200158
:1002D000909121019093C3028093C2024091220128
:1002E000509123014115510541F44DB75EB78091FE
:1002F0001E0190911F01481B590B2091C2023091A1
:10030000C302CA01821B930B8617970780F0AB01CB
:100310004E5F5F4F8417950750F0420F531F509365
:10032000C3024093C202F9016193719302C0E0E0FD
:10033000F0E0CF01DF91CF910895CF93DF93009745
:1003400009F450C0EC0122971B821A82A091C402CA
:10035000B091C502109709F140E050E0AC17BD071D
:1003600008F1BB83AA83FE0121913191E20FF31FB3
:10037000AE17BF0779F48D919C911197280F391F03
:100380002E5F3F4F3983288312968D919C9113974E
:100390009B838A834115510571F4D093C502C093A4
:1003A000C40220C012968D919C911397AD010097C5
:1003B00011F0DC01D3CFFA01D383C28321913191B3
:1003C000E20FF31FCE17DF0769F488819981280FA8
:1003D000391F2E5F3F4FFA01318320838A819B8131
:1003E00093838283DF91CF910895DC0101C06D93E7
:1003F00041505040E0F7089581E0809343016093BD
:100400003E011092410110924201089580913D01F8
:1004100090913C01891B089590913C0180913D0190
:10042000981710F080E00895E0913A01F0913B01B7
:10043000E90FF11D80819F5F90933C01089508951D
:10044000DF93CF930F92CDB7DEB7698380914301DD
:100450008823A9F0809142018032B0F4809141015B
:10046000E0913F01F0914001E80FF11D6083809120
:1004700041018F5F809341018093420105C0CE010D
:10048000019661E00E9435030F90CF91DF910895AE
:10049000EF92FF920F931F93CF93DF937C01042F72
:1004A00080914301882359F0EB0110E005C0C7019A
:1004B00069910E9420021F5F1017C8F304C0CB018E
:1004C000642F0E943503DF91CF911F910F91FF9010
:1004D000EF900895DB010D900020E9F71197A61B1E
:1004E000B70B4A2F0E944802089560913F01709116
:1004F000400180913E014091420121E00E94F002C2
:100500001092410110924201109243010895862FEA
:1005100060913A0170913B01413208F040E20E9443
:10052000B80210923C0180933D0108950E94870219
:10053000089580E290E061E070E00E94D70080932F
:100540003A0190933B0110923C0110923D0180E2F0
:1005500090E061E070E00E94D70080933F019093AB
:10056000400110924101109242010E94D40408956A
:10057000982F413210F040E031C08091450188232E
:10058000E1F781E0809345018FEF8093560110924F
:100590004D01415040934E014F5F990F91609093F0
:1005A000460185EE8093BC00809145018130E1F3E6
:1005B00080914D01841710F440914D01A0914B01A1
:1005C000B0914C0120E030E007C0FB01E20FF31FC7
:1005D0008D9180832F5F3F4F2417B8F3842F0895A8
:1005E0001F93582F122F413210F081E03CC08091B0
:1005F00045018823E1F782E0809345018FEF8093E6
:10060000560110924D0140934E01A0914B01B091C3
:100610004C01FB0102C081918D938E2F861B8417A4
:10062000D0F3852F90E0880F991F8093460185EEC7
:100630008093BC00112321F0809145018230E1F3C9
:10064000809156018F3F11F480E00DC080915601DA
:10065000803211F482E007C080915601803311F09E
:1006600084E001C083E01F910895482F613210F0AB
:1006700081E0089580914501843011F082E0089571
:1006800060935201A0914F01B0915001842F9C01C1
:10069000F90102C081918D938E2F841B8617D0F3B0
:1006A00080E008951F920F920FB60F9211242F939E
:1006B0003F934F935F936F937F938F939F93AF93EA
:1006C000BF93EF93FF938091B90090E0887F907083
:1006D0008036910509F4E2C081369105CCF5883267
:1006E000910509F47BC089329105B4F480319105FC
:1006F00009F46FC0813191053CF4009709F438C1C9
:10070000089709F040C165C08831910509F466C0B9
:10071000809709F038C17FC08034910509F4A3C0E7
:100720008134910544F48033910509F47FC0C89762
:1007300009F029C186C08035910509F486C0883545
:10074000910509F495C08834910509F01CC19EC03B
:100750008839910509F404C189399105ECF4883789
:10076000910509F49BC0893791054CF488369105B1
:1007700009F494C08037910509F005C18FC088380D
:10078000910509F4EDC08039910509F48DC08038D8
:10079000910509F0F8C088C0803B910509F4B2C00A
:1007A000813B91054CF4803A910509F491C0883A57
:1007B000910509F0E8C0A6C0803C910509F4D4C0B9
:1007C000883C910509F4D0C0883B910509F0DBC055
:1007D000B1C0809146018093BB00C0C090914D0193
:1007E00080914E01981778F490914D01E0914B0162
:1007F000F0914C01E90FF11D80818093BB009F5F58
:1008000090934D01ABC085ED8093BC008091BC00FE
:1008100084FDFCCFB6C080E28093560185ED8093C5
:10082000BC008091BC0084FDFCCFABC080E3809312
:10083000560185ED8093BC008091BC0084FDFCCF07
:10084000A0C088E3809356018FC080914D019091A4
:10085000BB00E0914B01F0914C01E80FF11D90833A
:100860008F5F80934D0190914D0180914E0174C036
:1008700080914D019091BB00E0914B01F0914C01B2
:10088000E80FF11D90838F5F80934D0185ED80937C
:10089000BC008091BC0084FDFCCF73C083E08093DA
:1008A0004501109255015AC080915501803208F0DF
:1008B00057C0809155019091BB00E0915301F09198
:1008C0005401E80FF11D90838F5F8093550146C05E
:1008D00080915501803248F480915501E091530197
:1008E000F0915401E80FF11D108260915501E091E3
:1008F0004901F0914A01809153019091540170E0B7
:10090000099532C084E08093450110925101109204
:100910005201E0914701F0914801099580915201FF
:10092000882341F481E080935201E0914F01F091DE
:100930005001108290915101E0914F01F0915001CE
:10094000E90FF11D80818093BB009F5F909351015F
:100950009091510180915201981710F485EC01C0DB
:1009600085E88093BC000FC085EC8093BC0009C073
:100970001092560185ED8093BC008091BC0084FDEF
:10098000FCCF10924501FF91EF91BF91AF919F91E4
:100990008F917F916F915F914F913F912F910F9028
:1009A0000FBE0F901F90189510924501449A459ADA
:1009B000E9EBF0E080818E7F808380818D7F808372
:1009C00088E48093B80085E48093BC0080E290E0E6
:1009D00061E070E00E94D70080934B0190934C013E
:1009E00080E290E061E070E00E94D70080934F01C8
:1009F0009093500180E290E061E070E00E94D700A7
:100A0000809353019093540108950F931F93CF93B4
:100A1000DF93FC01718976957170A481B581938112
:100A2000772329F08C91892309F454C004C08C9158
:100A3000892309F04FC08185928520E001972FEF2F
:100A40008F3F9207D9F7C385D485A481B5811381DF
:100A500060E031E040E050E000E0CE01202F01975F
:100A60002FEF8F3F9207D9F78C91812311F0632BE1
:100A700003C0832F80956823330F4F5F5F4F48304B
:100A8000510559F78585968520E001972FEF8F3F17
:100A90009207D9F7711160958091990120919A017F
:100AA00090E001968F73907030E08217930779F091
:100AB000E0919901F0E0E75AFE4F6083809199013F
:100AC00090E001968F7390708093990103C08189A3
:100AD0008160818BDF91CF911F910F9108951F92BB
:100AE0000F920FB60F9211242F933F934F935F9362
:100AF0006F937F938F939F93AF93BF93EF93FF93E6
:100B00008091570190915801009711F00E940505BE
:100B1000FF91EF91BF91AF919F918F917F916F91D5
:100B20005F914F913F912F910F900FBE0F901F90AB
:100B300018951F920F920FB60F9211242F933F9387
:100B40004F935F936F937F938F939F93AF93BF93D5
:100B5000EF93FF938091570190915801009711F006
:100B60000E940505FF91EF91BF91AF919F918F91E9
:100B70007F916F915F914F913F912F910F900FBE99
:100B80000F901F9018951F920F920FB60F9211247D
:100B90002F933F934F935F936F937F938F939F9385
:100BA000AF93BF93EF93FF938091570190915801BA
:100BB000009711F00E940505FF91EF91BF91AF9151
:100BC0009F918F917F916F915F914F913F912F9165
:100BD0000F900FBE0F901F901895CF92DF92EF925B
:100BE000FF920F931F93CF93DF93EC017A018B0158
:100BF000188A1F861E861D861C861B861A861986E5
:100C000020E030E06901CC0CDD1CC20ED31EB60121
:100C1000660F771F660F771FAB0148595F4FFA01C8
:100C200085919591A591B4918E159F05A007B10767
:100C3000E9F4FB01E459FF4F859194919A878987E4
:100C4000FB01E259FF4F859194919C878B87FB01B3
:100C5000E059FF4F859194919E878D87FB01EE5857
:100C6000FF4F85919491988B8F8706C02F5F3F4FE0
:100C70002C30310509F0C6CF8D859E85892B09F46E
:100C800049C04A81463108F03DC090916800483023
:100C900010F484E005C04E3010F082E001C081E025
:100CA000892B80936800483028F4EDE6F0E0ADE64B
:100CB000B0E00BC04E3028F0ECE6F0E0ACE6B0E07F
:100CC00004C0EBE6F0E0ABE6B0E05081483040F421
:100CD00081E090E002C0880F991F4A95E2F710C0AA
:100CE000242F30E04E3018F42850304002C02E50EF
:100CF000304081E090E002C0880F991F2A95E2F70A
:100D0000852B8C938F85988920E001972FEF8F3F5B
:100D10009207D9F780915701909158018C179D0740
:100D200081F089898E7F898B9FB7F8941092990101
:100D30008091990180939A01D0935801C0935701F3
:100D40009FBFDF91CF911F910F91FF90EF90DF90A8
:100D5000CF900895FC014281463180F5483028F457
:100D6000EDE6F0E0ADE6B0E00BC04E3028F4EBE687
:100D7000F0E0ABE6B0E004C0ECE6F0E0ACE6B0E0FA
:100D80005081483040F481E090E002C0880F991F04
:100D90004A95E2F710C0242F30E04E3018F4285066
:100DA000304002C02E50304081E090E002C0880FF9
:100DB000991F2A95E2F7809585238C930895FC016D
:100DC0008AE291E091838083CF010E94AA06089570
:100DD000FC0180915701909158018E179F0789F06F
:100DE00081898E7F818B9FB7F894109299018091B1
:100DF000990180939A01F0935801E09357019FBFA6
:100E000006C090919A0180919901981719F42FEFDB
:100E10003FEF0FC0E0919A01F0E0E75AFE4F2081CA
:100E200080919A0190E001968F73907080939A015F
:100E300030E0C9010895FC0180915701909158015B
:100E40008E179F0791F081898E7F818B9FB7F894D1
:100E5000109299018091990180939A01F093580121
:100E6000E09357019FBF80E0089580919901209100
:100E70009A0190E0805C9F4F821B910960E470E0D2
:100E80000E94631108950F931F93DC011F968D91AB
:100E90009C915097892B09F4B6C08091570190918D
:100EA00058018A179B07A1F051968C9151978E7F1C
:100EB00051968C9351979FB7F89410929901809115
:100EC000990180939A01B0935801A09357019FBF55
:100ED0000FB7F89451968C9151971796ED91FC911C
:100EE000189716962C91169781FF88C08081822BC7
:100EF00080831F968D919C915097059620E00197D5
:100F00002FEF8F3F9207D9F751968C91519781FF20
:100F100035C031E040E050E070E010E0832F90E019
:100F2000862397231796ED91FC91189716962C918E
:100F30001697892B29F0808120952823208303C0D0
:100F40008081822B80831F968D919C915097212FB9
:100F500001972FEF8F3F9207D9F7330F4F5F5F4F06
:100F600048305105D9F61796ED91FC91189790816C
:100F700016968C9116978095892333C031E040E016
:100F800050E070E010E0832F90E0862397231796BF
:100F9000ED91FC91189716962C911697892B21F0BC
:100FA0008081822B808304C0808120952823208328
:100FB0001F968D919C915097212F01972FEF8F3F76
:100FC0009207D9F7330F4F5F5F4F48305105D9F67D
:100FD0001796ED91FC911897808116969C91169723
:100FE000892B80830FBF1F968D919C91509720E095
:100FF00001972FEF8F3F9207D9F705C08081209589
:101000002823208376CF1F910F9108951F93CF93AC
:10101000DF93EC01162F862F60E00E94340E898941
:1010200081FD04C0812F61E00E94540E1A83212F9C
:1010300030E0C901865D9E4FFC0184918B832A5E5E
:101040003E4FF9016491E62FF0E0EE0FFF1FE45FE1
:10105000FE4F859194919D838C83DF91CF911F9159
:101060000895FF920F931F938C01F62E862F61E057
:101070000E94340E8F2D61E00E94540E8F2D90E05F
:10108000FC01E65DFE4FE491D8011696EC931697AD
:101090008A5E9E4FFC016491E62FF0E0EE0FFF1F89
:1010A000EE5FFE4F8591949118969C938E931797BF
:1010B0001F910F91FF900895FF920F931F938C0142
:1010C000F62E8AE291E0F8019183808312861186E0
:1010D0001486138616861586108A178681892170D4
:1010E000220F8C7F822B818BC801642F0E943108D4
:1010F000C8016F2D0E9406081F910F91FF9008955F
:10110000FC012FEF3FEF4FEF5FEF208331834283EE
:10111000538310861186128613868FEF99ECAAE905
:10112000BBE3808B918BA28BB38B808F918FA28F2F
:10113000B38F80A391A3A2A3B3A380A791A7A2A7D3
:10114000B3A780AB91ABA2ABB3AB20AF31AF42AF93
:1011500053AFE05CFF4F2083318342835383389643
:1011600011921082709682E08193119211921192E5
:101170001192119211921192119211921182108278
:10118000799710820895EF92FF920F931F93CF9358
:10119000DF939C01EE24FC01E65BFF4F80818D32E2
:1011A00031F4EE24E394E901C55BDF4F01C0EF01A8
:1011B0008E0120E030E040E050E018C0CA01B901E3
:1011C0002AE030E040E050E00E9444112F2D332708
:1011D00027FD3095432F532F20533040404050403F
:1011E000260F371F481F591F0F5F1F4FF801F08050
:1011F0008F2D80538A3010F3CA01B90124E630E004
:1012000040E050E00E9444119B01AC0101C02196D6
:101210009881892F80538A30D0F39E3229F59981A5
:10122000892F80538A3000F58AE09802C00111248A
:10123000805E9140AA2797FDA095BA2F280F391FED
:101240004A1F5B1F9A81892F80538A3068F4892F47
:10125000992787FD9095C097AA2797FDA095BA2F4B
:10126000280F391F4A1F5B1FEE2039F0509540951B
:10127000309521953F4F4F4F5F4FB901CA01DF9124
:10128000CF911F910F91FF90EF9008954F925F9231
:101290006F927F928F929F92AF92BF92CF92DF9286
:1012A000EF92FF920F931F93CF93DF932AE4822E46
:1012B000912C880E991EE40120E030E040E050E0DF
:1012C00017C0CA01B9012AE030E040E050E00E94B6
:1012D0004411212F332727FD3095432F532F2053BF
:1012E000304040405040260F371F481F591F21965D
:1012F0001881812F80538A3020F3722E632E542E52
:10130000452EB901CA0124E630E040E050E00E94D9
:10131000761120E137E240E050E00E9444115B0189
:101320006C0103C00894811C911CF4019081892FE9
:1013300080538A30B8F39E3269F588EEE82E83E058
:10134000F82E012D112D1DC0332727FD3095205378
:101350003040442737FD4095542FC801B7010E9403
:101360004411A60EB71EC81ED91EC801B7012AE037
:1013700030E040E050E00E947611C901DA017C01C2
:101380008D010894811C911CF4012081822F8053CF
:101390008A30D0F2C601B50126E030E040E050E0EE
:1013A0000E94761179018A01672D762D852D942D65
:1013B00024E630E040E050E00E947611CA01B90115
:1013C00020EA36E841E050E00E944411E60EF71EA4
:1013D000081F191FB701C801DF91CF911F910F910D
:1013E000FF90EF90DF90CF90BF90AF909F908F9045
:1013F0007F906F905F904F900895FF920F931F938F
:10140000CF93DF93EC01C75BDF4F8881C954D04095
:10141000882309F4CFC0C65BDF4F9881CA54D040FF
:10142000892F8154863038F4292F332727FD3095B2
:10143000275330400CC0292F332727FD3095915674
:10144000963018F42755304002C020533040C55B19
:10145000DF4F4881CB54D040842F8154863030F404
:10146000842F992787FD9095C7970BC0842F9927C4
:1014700087FD90954156463018F48755904001C03D
:10148000C09744E0220F331F4A95E1F7982F920F3F
:10149000C85BDF4F8881C854D040981709F081C0DD
:1014A000C45ADF4F8881CC55D040882309F4ACC1A1
:1014B000FE01EF59FF4F80819181019691838083D6
:1014C0008CAD9DADAEADBFAD88AF99AFAAAFBBAF90
:1014D000FE01E05CFF4FCC5BDF4F88819981AA81E0
:1014E000BB8180839183A283B38365968881C9552C
:1014F000D0408823A1F1813009F051C08C819D81B9
:10150000AE81BF8188839983AA83BB838C859D85A7
:10151000AE85BF8588879987AA87BB878C899D8977
:10152000AE89BF89888B998BAA8BBB8B8C8D9D8D47
:10153000AE8DBF8D888F998FAA8FBB8F8CA59DA5EF
:10154000AEA5BFA588A799A7AAA7BBA78CA99DA947
:10155000AEA9BFA988AB99ABAAABBBAB20C08CA18D
:101560009DA1AEA1BFA188A399A3AAA3BBA38C816F
:101570009D81AE81BF8188839983AA83BB838C8937
:101580009D89AE89BF89888B998BAA8BBB8B8C8DEB
:101590009D8DAE8DBF8D888F998FAA8FBB8F81E077
:1015A00034C1FE01ED59FF4F8081918101969183F5
:1015B00080832AC1C65ADF4F3881CA55D0403323B1
:1015C00021F59E01265B3F4FD901E0E0F1E002C02A
:1015D000119631969C91992339F080819817C1F327
:1015E000D901E6E0F1E006C0C75ADF4F81E016C13D
:1015F000119631969C91992321F080819817C1F31F
:101600000AC1C75ADF4F1882FFC0C75ADF4F88810F
:10161000C955D040823009F4F7C0C65BDF4F28813E
:10162000CA54D040222309F4EFC0882319F084E67D
:1016300090E002C088EC90E0830F911D8C369105FC
:1016400009F49FC08D369105ECF48836910509F4B4
:1016500062C0893691056CF48636910509F443C061
:10166000873691050CF047C08536910509F0CCC04E
:101670002CC08A36910509F469C08B3691050CF0AF
:1016800078C05CC08B3C910509F445C08C3C910549
:101690005CF4893C9105C9F08A3C910564F58D366E
:1016A000910509F0B1C075C08D3C910509F44EC09B
:1016B0008D3C91050CF442C08E3C910509F494C018
:1016C000813D910509F0A0C098C0CE010E94C308D9
:1016D0006C837D838E839F830E94C20D6CAF7DAF30
:1016E0008EAF9FAF91C0FE01E45AFF4F10822134AC
:1016F00009F08AC07FC0CE010E9446096C8B7D8BA9
:101700008E8B9F8B0E94C20DCC5BDF4F68837983E9
:101710008A839B8379C0233509F076C08C899D89A3
:10172000AE89BF89B095A095909581959F4FAF4F99
:10173000BF4F8C8B9D8BAE8BBF8B66C0CE010E9442
:1017400046096C8F7D8F8E8F9F8F5EC0273509F085
:101750005BC08C8D9D8DAE8DBF8DB095A095909505
:1017600081959F4FAF4FBF4F8C8F9D8FAE8FBF8F97
:101770004BC0CE010E94C3086CA77DA78EA79FA770
:1017800043C0CE010E94C3086CAB7DAB8EAB9FAB58
:101790003BC08E01065B1F4F20E030E040E050E090
:1017A00018C0CA01B9012AE030E040E050E00E94D0
:1017B00044112F2D332727FD3095432F532F2053CE
:1017C000304040405040260F371F481F591F0F5FC1
:1017D0001F4FF801F0808F2D80538A3010F32C8733
:1017E0003D874E875F8710C0FE01E45AFF4F10828D
:1017F000213354F081E0808307C0CE010E94C308EA
:101800006CA37DA38EA39FA380E0DF91CF911F9156
:101810000F91FF900895C75ADF4F82E08883F4CF7D
:101820001F93CF93DF93EC01162FFC01E35AFF4F78
:1018300080819181A281B3810196A11DB11D808318
:101840009183A283B3836432A1F1DE01A55ABF4F15
:1018500065322CF46A3069F06D30C9F50AC06A321D
:1018600041F06C32A1F5FE01E85BFF4F80818627D5
:1018700080838C918F3010F090E00AC0FE01E80F59
:10188000F11DE65BFF4F1082CE010E94FD09982FEB
:10189000FE01E65AFF4F80818F5F8083C55ADF4F7C
:1018A0001882FE01729710821A3251F581E080830E
:1018B00027C0C55ADF4F18821A9262971882619624
:1018C00082E08883609718826396188218C08C9192
:1018D0008E3040F4FE01E80FF11DE65BFF4F1083F0
:1018E0008F5F8C93C75BDF4F8881C954D0408823BA
:1018F00031F4FE01E85BFF4F80818127808390E017
:10190000892FDF91CF911F9108958130910579F44E
:101910006F5F7F4FA9F481EA91E00E94800888E020
:1019200092E062E043E020E00E945C080895892B89
:1019300039F46F5F7F4F21F488E092E00E94DF0668
:10194000089580E090E06FEF7FEF0E94850C08958E
:1019500081E090E06FEF7FEF0E94850C0895CF93B8
:10196000DF9360919B0170919C0184E491E00E945F
:10197000FC0184E491E06CE071E00E946A0284E47E
:1019800091E00E9475026AE070E080E090E00E94C1
:10199000D00D60919B0170919C0184E491E042E044
:1019A00050E00E949602CFE9D1E084E491E00E94E9
:1019B00006028823A9F181E0C13AD80789F184E4BD
:1019C00091E00E940C028993F0CF88E092E00E949F
:1019D000E806682F81EA91E00E94100C882301F14B
:1019E0008091B1019091B201A091B301B091B40185
:1019F00080931A0290931B02A0931C02B0931D02C5
:101A00008091B9019091BA01A091BB01B091BC0144
:101A100080931E0290931F02A0932002B093210294
:101A200088E092E00E941B07882379F690919F013D
:101A300080E02091A001820F911D90939E018093E0
:101A40009D018FEA92E06EE071E00E945B10409190
:101A50001A0250911B0260911C0270911D028FEAC4
:101A600092E00E941D118FEA92E069E171E00E940C
:101A70005B1040911E0250911F02609120027091F4
:101A800021028FEA92E00E941D118FEA92E06BE141
:101A900071E00E947A1064EF71E080E090E00E94B3
:101AA000D00DDF91CF91089580912401909125016F
:101AB0009595879590939C0180939B018FEA92E086
:101AC00040E052EC61E070E00E94DE0E88E092E0BF
:101AD00040EC52E160E070E00E94ED0584E491E0AA
:101AE0000E94990208950E94FA0D0E94540D0E94CE
:101AF000AF0CFDCF1F920F920FB60F9211242F93B0
:101B00003F938F939F93AF93BF93809126029091C1
:101B10002702A0912802B091290230912A02019651
:101B2000A11DB11D232F2D5F2D3720F02D570196BC
:101B3000A11DB11D20932A028093260290932702B3
:101B4000A0932802B093290280912202909123024F
:101B5000A0912402B09125020196A11DB11D809390
:101B6000220290932302A0932402B0932502BF91F6
:101B7000AF919F918F913F912F910F900FBE0F903A
:101B80001F9018958FB7F894209126023091270264
:101B900040912802509129028FBFB901CA010895CE
:101BA000EF92FF920F931F937B018C018FB7F894F4
:101BB00040912602509127026091280270912902DB
:101BC0008FBF2FB7F8948091260290912702A091A1
:101BD0002802B09129022FBF841B950BA60BB70BCF
:101BE000E816F9060A071B0760F71F910F91FF908F
:101BF000EF900895789484B5826084BD84B5816047
:101C000084BD85B5826085BD85B5816085BDEEE604
:101C1000F0E0808181608083E1E8F0E08081826093
:101C20008083808181608083E0E8F0E08081816052
:101C30008083E1EBF0E0808184608083E0EBF0E082
:101C4000808181608083EAE7F0E080818460808326
:101C500080818260808380818160808380818068D0
:101C600080831092C1000895282F30E0C901865D5D
:101C70009E4FFC0194912A5E3E4FF9018491882386
:101C800091F0E82FF0E0EE0FFF1FE850FF4FA59115
:101C9000B491662329F48C91909589238C930895AF
:101CA0008C91892B8C930895482F50E0CA01825C57
:101CB0009E4FFC012491CA01865D9E4FFC019491C8
:101CC0004A5E5E4FFA0134913323D1F1222331F180
:101CD000233021F4809180008F7705C0243031F4C7
:101CE000809180008F7D8093800018C0213019F48E
:101CF00084B58F7704C0223021F484B58F7D84BDF4
:101D00000DC0263021F48091B0008F7705C02730B8
:101D100029F48091B0008F7D8093B000E32FF0E034
:101D2000EE0FFF1FEE5FFE4FA591B491662329F4DD
:101D30008C91909589238C9308958C91892B8C9309
:101D400008951F920F920FB60F9211242F933F9375
:101D50004F935F936F937F938F939F93AF93BF93B3
:101D6000EF93FF934091C600E091AB02F091AC027B
:101D7000CF01019660E870E00E9463119C018091A0
:101D8000AD029091AE022817390739F0E55DFD4F9D
:101D900040833093AC022093AB02FF91EF91BF914F
:101DA000AF919F918F917F916F915F914F913F91F3
:101DB0002F910F900FBE0F901F9018955F926F920A
:101DC0007F928F929F92AF92BF92CF92DF92EF92CB
:101DD000FF920F931F93CF93DF93EC013A014B01D6
:101DE000413482E458078FE0680780E078070CF000
:101DF0007FC060E874E88EE190E0A40193010E9446
:101E000098112150304040405040CA01B90122E0B1
:101E100030E040E050E00E94981159016A01A601AB
:101E20009501209530954095509594E0220F331FF1
:101E3000441F551F9A95D1F760E074E284EF90E05B
:101E40000E949811CA01B9012FEF30E040E050E044
:101E50000E944411A40193010E949811C90181506C
:101E60009F4F181619061CF4522E5A9403C055247D
:101E70005394521A60E079E08DE390E0A40193015D
:101E80000E9498112150304040405040CA01B90191
:101E900022E030E040E050E00E949811209530951B
:101EA0004095509583E0220F331F441F551F8A959C
:101EB000D1F760E074E284EF90E00E949811CA01CB
:101EC000B9012FEF30E040E050E00E944411A4013E
:101ED00093010E949811C90181509F4F181619064D
:101EE0001CF4822F815002C081E0821B851500F511
:101EF000E885F98581E090E00A8802C0880F991F83
:101F00000A94E2F7808360E079E08DE390E0A40139
:101F100093010E9498112150304040405040CA0126
:101F2000B90122E030E040E050E00E94981104C086
:101F3000E885F98510829501EC81FD813083EE8181
:101F4000FF812083EA85FB85208141E050E0CA01C2
:101F50000E8402C0880F991F0A94E2F7282B208371
:101F6000EA85FB852081CA010F8402C0880F991F72
:101F70000A94E2F7282B2083EA85FB858081088874
:101F800002C0440F551F0A94E2F7842B8083DF912F
:101F9000CF911F910F91FF90EF90DF90CF90BF9066
:101FA000AF909F908F907F906F905F900895FC010D
:101FB000A085B18521898C9190E0022E02C0959573
:101FC00087950A94E2F780FFF6CF0484F585E02D2B
:101FD0006083089584E391E09093B0028093AF0210
:101FE0008BE292E09093B2028093B10285EC90E094
:101FF0009093B4028093B30284EC90E09093B60285
:102000008093B50280EC90E09093B8028093B70281
:1020100081EC90E09093BA028093B90286EC90E054
:102020009093BC028093BB0284E08093BD0283E066
:102030008093BE0287E08093BF0285E08093C00258
:1020400081E08093C10208950F931F93CF93DF9394
:102050008C01EB0109C02196D801ED91FC91019012
:10206000F081E02DC801099568816623A1F7DF9111
:10207000CF911F910F910895EF92FF920F931F93AD
:10208000CF93DF938C017B01EA010CC0D7016D91E6
:102090007D01D801ED91FC910190F081E02DC80106
:1020A00009952197209791F7DF91CF911F910F917B
:1020B000FF90EF900895DC01ED91FC910280F38197
:1020C000E02D099508950F931F938C01DC01ED918C
:1020D000FC910190F081E02D6DE00995D801ED9122
:1020E000FC910190F081E02DC8016AE009951F91F3
:1020F0000F9108950F931F938C010E945B10C801EC
:102100000E9463101F910F9108952F923F924F925A
:102110005F926F927F928F929F92AF92BF92CF9277
:10212000DF92EF92FF920F931F93DF93CF93CDB780
:10213000DEB7A0970FB6F894DEBF0FBECDBF1C016F
:102140006A017B01411551056105710549F4DC0106
:10215000ED91FC910190F081E02D60E3099554C070
:10216000882499245401422E55246624772401E0C2
:1021700010E00C0F1D1F080D191DC701B601A301AA
:1021800092010E947611F80160830894811C911CD1
:10219000A11CB11CC701B601A30192010E947611D6
:1021A000C901DA016C017D01C114D104E104F1041B
:1021B000F1F681E0E82EF12CEC0EFD1EE80CF91C86
:1021C0003E010894611C711CD501C4010197A1094D
:1021D000B1096C01C818D90814C0F601EE0DFF1D35
:1021E00060816A3010F4605D01C0695CD101ED91DD
:1021F000FC910190F081E02DC10109950894E1085E
:10220000F1086E147F0449F7A0960FB6F894DEBF6C
:102210000FBECDBFCF91DF911F910F91FF90EF9037
:10222000DF90CF90BF90AF909F908F907F906F90F6
:102230005F904F903F902F900895EF92FF920F93F1
:102240001F93CF93DF93EC017A018B0177FF0FC0CF
:10225000E881F9810190F081E02D6DE209951095FA
:102260000095F094E094E11CF11C011D111DCE01BC
:10227000B801A7012AE00E948510DF91CF911F913C
:102280000F91FF90EF900895629FD001739FF0012E
:10229000829FE00DF11D649FE00DF11D929FF00DF6
:1022A000839FF00D749FF00D659FF00D9927729F2D
:1022B000B00DE11DF91F639FB00DE11DF91FBD01B8
:1022C000CF011124089597FB092E07260AD077FD28
:1022D00004D049D006D000201AF4709561957F4F44
:1022E0000895F6F7909581959F4F0895A1E21A2ED3
:1022F000AA1BBB1BFD010DC0AA1FBB1FEE1FFF1FAA
:10230000A217B307E407F50720F0A21BB30BE40BF9
:10231000F50B661F771F881F991F1A9469F7609540
:102320007095809590959B01AC01BD01CF010895FA
:1023300097FB092E05260ED057FD04D0D7DF0AD013
:10234000001C38F450954095309521953F4F4F4FE4
:102350005F4F0895F6F790958095709561957F4F42
:102360008F4F9F4F0895AA1BBB1B51E107C0AA1FA7
:10237000BB1FA617B70710F0A61BB70B881F991F26
:102380005A95A9F780959095BC01CD010895EE0F5F
:10239000FF1F0590F491E02D099411E0C8E5D1E00C
:1023A00004C0FE010E94C9112296CA35D107C9F79F
:0423B000F894FFCFCF
:1023B4004750524D43004750474741004100454E66
:1023C400474C31313032263B003B003B3B00200080
:1023D400C6020000420000000000430724103C1025
:0A23E40000000000D70F24103C1089
:00000001FF
