:100000000C94AD000C94D5000C94D5000C946F05A5
:100010000C9499050C94C3050C94D5000C94D50050
:100020000C94D5000C94D5000C94D5000C94D500FC
:100030000C94D5000C94D5000C94D5000C94D500EC
:100040000C945A0E0C94D5000C94810F0C94D5008E
:100050000C94D5000C94D5000C94D5000C94D500CC
:100060000C9452030C94D50000C201000100110051
:1000700011000C0000E100000A002500250021000D
:10008000009600001900390039003600127A00008D
:100090001F004600460044008070000022004D0012
:1000A0004D004A00004B00003600750075007200DC
:1000B000403800004A009C009C0099008025000008
:1000C0007200EC00EC00E900C0120000E900DA0167
:1000D000DA01D70160090000D701B603B603B30304
:1000E000B0040000B3036E076E076B072C0100001D
:1000F000DC0EC11DC11DBE1D000000002400270034
:100100002A0000000000250028002B00000000004D
:100110002300260029000404040404040404020249
:100120000202020203030303030301020408102076
:100130004080010204081020010204081020000081
:100140000007000201000003040600000000000098
:1001500000001F02A80C0611A10C11241FBECFEF36
:10016000D8E0DEBFCDBF11E0A0E0B1E0ECE0F6E208
:1001700002C005900D92AE36B107D9F712E0AEE697
:10018000B1E001C01D92AA3FB107E1F711E0C8E557
:10019000D1E004C02297FE010E94F512C235D107BA
:1001A000C9F70E94530E0C94F9120C9400000F939F
:1001B0001F93CF93DF93689F8001699F100D789FF5
:1001C000100D1124C8010E94F300EC01009729F0E2
:1001D00060E070E0A8010E94F501CE01DF91CF91AF
:1001E0001F910F910895CF93DF93BC018230910549
:1001F00010F462E070E0A091F802B091F902ED0114
:10020000E0E0F0E040E050E021C08881998186176D
:10021000970769F48A819B81309719F093838283D1
:1002200004C09093F9028093F802FE0134C068176D
:10023000790738F44115510519F08417950708F42A
:10024000AC01FE018A819B819C01E9012097E9F6BE
:1002500041155105A9F1CA01861B970B049708F4B3
:10026000BA01E0E0F0E02AC08D919C9111978417CB
:100270009507F9F46417750781F412968D919C9196
:100280001397309719F09383828304C09093F902F7
:100290008093F802FD0132964CC0CA01861B970B71
:1002A000FD01E80FF91F6193719302978D939C9361
:1002B00040C0FD01828193819C01D9011097A1F674
:1002C0008091F6029091F702892B41F480914B01C5
:1002D00090914C019093F7028093F60240914D016A
:1002E00050914E014115510541F44DB75EB78091D3
:1002F000490190914A01481B590B2091F602309117
:10030000F702CA01821B930B8617970780F0AB0197
:100310004E5F5F4F8417950750F0420F531F509365
:10032000F7024093F602F9016193719302C0E0E095
:10033000F0E0CF01DF91CF910895CF93DF93009745
:1003400009F450C0EC0122971B821A82A091F80296
:10035000B091F902109709F140E050E0AC17BD07E9
:1003600008F1BB83AA83FE0121913191E20FF31FB3
:10037000AE17BF0779F48D919C911197280F391F03
:100380002E5F3F4F3983288312968D919C9113974E
:100390009B838A834115510571F4D093F902C09370
:1003A000F80220C012968D919C911397AD01009791
:1003B00011F0DC01D3CFFA01D383C28321913191B3
:1003C000E20FF31FCE17DF0769F488819981280FA8
:1003D000391F2E5F3F4FFA01318320838A819B8131
:1003E00093838283DF91CF910895DC0101C06D93E7
:1003F00041505040E0F7089581E080937701609389
:100400007201109275011092760108958091710128
:1004100090917001891B08959091700180917101F4
:10042000981710F080E00895E0916E01F0916F014F
:10043000E90FF11D80819F5F9093700108950895E9
:10044000DF93CF930F92CDB7DEB7698380917701A9
:100450008823A9F0809176018032B0F480917501F3
:10046000E0917301F0917401E80FF11D60838091B8
:1004700075018F5F809375018093760105C0CE0171
:10048000019661E00E9435030F90CF91DF910895AE
:10049000EF92FF920F931F93CF93DF937C01042F72
:1004A00080917701882359F0EB0110E005C0C70166
:1004B00069910E9420021F5F1017C8F304C0CB018E
:1004C000642F0E943503DF91CF911F910F91FF9010
:1004D000EF900895DB010D900020E9F71197A61B1E
:1004E000B70B4A2F0E9448020895609173017091E2
:1004F0007401809172014091760121E00E94F00226
:100500001092750110927601109277010895862F4E
:1005100060916E0170916F01413208F040E20E94DB
:10052000B802109270018093710108950E948702B1
:10053000089580E290E061E070E00E94D70080932F
:100540006E0190936F01109270011092710180E220
:1005500090E061E070E00E94D70080937301909377
:10056000740110927501109276010E94D4040895CE
:10057000982F413210F040E031C0809179018823FA
:10058000E1F781E0809379018FEF80938A011092E7
:1005900081014150409382014F5F990F9160909388
:1005A0007A0185EE8093BC00809179018130E1F37E
:1005B00080918101841710F440918101A0917F0105
:1005C000B091800120E030E007C0FB01E20FF31F93
:1005D0008D9180832F5F3F4F2417B8F3842F0895A8
:1005E0001F93582F122F413210F081E03CC08091B0
:1005F00079018823E1F782E0809379018FEF80937E
:100600008A011092810140938201A0917F01B091F3
:100610008001FB0102C081918D938E2F861B841770
:10062000D0F3852F90E0880F991F80937A0185EE93
:100630008093BC00112321F0809179018230E1F395
:1006400080918A018F3F11F480E00DC080918A0172
:10065000803211F482E007C080918A01803311F06A
:1006600084E001C083E01F910895482F613210F0AB
:1006700081E0089580917901843011F082E008953D
:1006800060938601A0918301B0918401842F9C0125
:10069000F90102C081918D938E2F841B8617D0F3B0
:1006A00080E008951F920F920FB60F9211242F939E
:1006B0003F934F935F936F937F938F939F93AF93EA
:1006C000BF93EF93FF938091B90090E0887F907083
:1006D0008036910509F4E2C081369105CCF5883267
:1006E000910509F47BC089329105B4F480319105FC
:1006F00009F46FC0813191053CF4009709F438C1C9
:10070000089709F040C165C08831910509F466C0B9
:10071000809709F038C17FC08034910509F4A3C0E7
:100720008134910544F48033910509F47FC0C89762
:1007300009F029C186C08035910509F486C0883545
:10074000910509F495C08834910509F01CC19EC03B
:100750008839910509F404C189399105ECF4883789
:10076000910509F49BC0893791054CF488369105B1
:1007700009F494C08037910509F005C18FC088380D
:10078000910509F4EDC08039910509F48DC08038D8
:10079000910509F0F8C088C0803B910509F4B2C00A
:1007A000813B91054CF4803A910509F491C0883A57
:1007B000910509F0E8C0A6C0803C910509F4D4C0B9
:1007C000883C910509F4D0C0883B910509F0DBC055
:1007D000B1C080917A018093BB00C0C0909181012B
:1007E00080918201981778F490918101E0917F01C6
:1007F000F0918001E90FF11D80818093BB009F5F24
:1008000090938101ABC085ED8093BC008091BC00CA
:1008100084FDFCCFB6C080E280938A0185ED809391
:10082000BC008091BC0084FDFCCFABC080E3809312
:100830008A0185ED8093BC008091BC0084FDFCCFD3
:10084000A0C088E380938A018FC08091810190913C
:10085000BB00E0917F01F0918001E80FF11D9083D2
:100860008F5F80938101909181018091820174C09A
:10087000809181019091BB00E0917F01F091800116
:10088000E80FF11D90838F5F8093810185ED809348
:10089000BC008091BC0084FDFCCF73C083E08093DA
:1008A0007901109289015AC080918901803208F043
:1008B00057C0809189019091BB00E0918701F09130
:1008C0008801E80FF11D90838F5F8093890146C0F6
:1008D00080918901803248F480918901E0918701FB
:1008E000F0918801E80FF11D108260918901E0917B
:1008F0007D01F0917E01809187019091880170E0E7
:10090000099532C084E0809379011092850110929C
:100910008601E0917B01F0917C010995809186012F
:10092000882341F481E080938601E0918301F09176
:100930008401108290918501E0918301F0918401FE
:10094000E90FF11D80818093BB009F5F909385012B
:100950009091850180918601981710F485EC01C073
:1009600085E88093BC000FC085EC8093BC0009C073
:1009700010928A0185ED8093BC008091BC0084FDBB
:10098000FCCF10927901FF91EF91BF91AF919F91B0
:100990008F917F916F915F914F913F912F910F9028
:1009A0000FBE0F901F90189510927901449A459AA6
:1009B000E9EBF0E080818E7F808380818D7F808372
:1009C00088E48093B80085E48093BC0080E290E0E6
:1009D00061E070E00E94D70080937F0190938001D6
:1009E00080E290E061E070E00E94D7008093830194
:1009F0009093840180E290E061E070E00E94D70073
:100A0000809387019093880108950F931F93CF934C
:100A1000DF93FC01718976957170A481B581938112
:100A2000772329F08C91892309F454C004C08C9158
:100A3000892309F04FC08185928520E001972FEF2F
:100A40008F3F9207D9F7C385D485A481B5811381DF
:100A500060E031E040E050E000E0CE01202F01975F
:100A60002FEF8F3F9207D9F78C91812311F0632BE1
:100A700003C0832F80956823330F4F5F5F4F48304B
:100A8000510559F78585968520E001972FEF8F3F17
:100A90009207D9F7711160958091CD012091CE0117
:100AA00090E001968F73907030E08217930779F091
:100AB000E091CD01F0E0E357FE4F60838091CD01DE
:100AC00090E001968F7390708093CD0103C081896F
:100AD0008160818BDF91CF911F910F9108951F92BB
:100AE0000F920FB60F9211242F933F934F935F9362
:100AF0006F937F938F939F93AF93BF93EF93FF93E6
:100B000080918B0190918C01009711F00E94050556
:100B1000FF91EF91BF91AF919F918F917F916F91D5
:100B20005F914F913F912F910F900FBE0F901F90AB
:100B300018951F920F920FB60F9211242F933F9387
:100B40004F935F936F937F938F939F93AF93BF93D5
:100B5000EF93FF9380918B0190918C01009711F09E
:100B60000E940505FF91EF91BF91AF919F918F91E9
:100B70007F916F915F914F913F912F910F900FBE99
:100B80000F901F9018951F920F920FB60F9211247D
:100B90002F933F934F935F936F937F938F939F9385
:100BA000AF93BF93EF93FF9380918B0190918C0152
:100BB000009711F00E940505FF91EF91BF91AF9151
:100BC0009F918F917F916F915F914F913F912F9165
:100BD0000F900FBE0F901F901895CF92DF92EF925B
:100BE000FF920F931F93CF93DF93EC017A018B0158
:100BF000188A1F861E861D861C861B861A861986E5
:100C000020E030E06901CC0CDD1CC20ED31EB60121
:100C1000660F771F660F771FAB0148595F4FFA01C8
:100C200085919591A591B4918E159F05A007B10767
:100C3000E9F4FB01E459FF4F859194919A878987E4
:100C4000FB01E259FF4F859194919C878B87FB01B3
:100C5000E059FF4F859194919E878D87FB01EE5857
:100C6000FF4F85919491988B8F8706C02F5F3F4FE0
:100C70002C30310509F0C6CF8D859E85892B09F46E
:100C800049C04A81463108F03DC090916800483023
:100C900010F484E005C04E3010F082E001C081E025
:100CA000892B80936800483028F4EDE6F0E0ADE64B
:100CB000B0E00BC04E3028F0ECE6F0E0ACE6B0E07F
:100CC00004C0EBE6F0E0ABE6B0E05081483040F421
:100CD00081E090E002C0880F991F4A95E2F710C0AA
:100CE000242F30E04E3018F42850304002C02E50EF
:100CF000304081E090E002C0880F991F2A95E2F70A
:100D0000852B8C938F85988920E001972FEF8F3F5B
:100D10009207D9F780918B0190918C018C179D07D8
:100D200081F089898E7F898B9FB7F8941092CD01CD
:100D30008091CD018093CE01D0938C01C0938B0123
:100D40009FBFDF91CF911F910F91FF90EF90DF90A8
:100D5000CF900895FC014281463180F5483028F457
:100D6000EDE6F0E0ADE6B0E00BC04E3028F4EBE687
:100D7000F0E0ABE6B0E004C0ECE6F0E0ACE6B0E0FA
:100D80005081483040F481E090E002C0880F991F04
:100D90004A95E2F710C0242F30E04E3018F4285066
:100DA000304002C02E50304081E090E002C0880FF9
:100DB000991F2A95E2F7809585238C930895FC016D
:100DC0008DE591E091838083CF010E94AA0608956A
:100DD000FC0180918B0190918C018E179F0789F007
:100DE00081898E7F818B9FB7F8941092CD0180917D
:100DF000CD018093CE01F0938C01E0938B019FBFD6
:100E000006C09091CE018091CD01981719F42FEF73
:100E10003FEF0FC0E091CE01F0E0E357FE4F20819D
:100E20008091CE0190E001968F7390708093CE01F7
:100E300030E0C9010895FC0180918B0190918C01F3
:100E40008E179F0791F081898E7F818B9FB7F894D1
:100E50001092CD018091CD018093CE01F0938C0151
:100E6000E0938B019FBF80E008958091CD01209198
:100E7000CE0190E0805C9F4F821B910960E470E09E
:100E80000E948F1208950F931F93DC011F968D917E
:100E90009C915097892B09F4B6C080918B01909159
:100EA0008C018A179B07A1F051968C9151978E7FE8
:100EB00051968C9351979FB7F8941092CD018091E1
:100EC000CD018093CE01B0938C01A0938B019FBF85
:100ED0000FB7F89451968C9151971796ED91FC911C
:100EE000189716962C91169781FF88C08081822BC7
:100EF00080831F968D919C915097059620E00197D5
:100F00002FEF8F3F9207D9F751968C91519781FF20
:100F100035C031E040E050E070E010E0832F90E019
:100F2000862397231796ED91FC91189716962C918E
:100F30001697892B29F0808120952823208303C0D0
:100F40008081822B80831F968D919C915097212FB9
:100F500001972FEF8F3F9207D9F7330F4F5F5F4F06
:100F600048305105D9F61796ED91FC91189790816C
:100F700016968C9116978095892333C031E040E016
:100F800050E070E010E0832F90E0862397231796BF
:100F9000ED91FC91189716962C911697892B21F0BC
:100FA0008081822B808304C0808120952823208328
:100FB0001F968D919C915097212F01972FEF8F3F76
:100FC0009207D9F7330F4F5F5F4F48305105D9F67D
:100FD0001796ED91FC911897808116969C91169723
:100FE000892B80830FBF1F968D919C91509720E095
:100FF00001972FEF8F3F9207D9F705C08081209589
:101000002823208376CF1F910F9108951F93CF93AC
:10101000DF93EC01162F862F60E00E94140F898960
:1010200081FD04C0812F61E00E94340F1A83212FBB
:1010300030E0C901865D9E4FFC0184918B832A5E5E
:101040003E4FF9016491E62FF0E0EE0FFF1FE45FE1
:10105000FE4F859194919D838C83DF91CF911F9159
:101060000895FF920F931F938C01F62E862F61E057
:101070000E94140F8F2D61E00E94340F8F2D90E09D
:10108000FC01E65DFE4FE491D8011696EC931697AD
:101090008A5E9E4FFC016491E62FF0E0EE0FFF1F89
:1010A000EE5FFE4F8591949118969C938E931797BF
:1010B0001F910F91FF900895FF920F931F938C0142
:1010C000F62E8DE591E0F8019183808312861186DA
:1010D0001486138616861586108A178681892170D4
:1010E000220F8C7F822B818BC801642F0E943108D4
:1010F000C8016F2D0E9406081F910F91FF9008955F
:10110000FC012FEF3FEF4FEF5FEF208331834283EE
:10111000538310861186128613868FEF99ECAAE905
:10112000BBE3808B918BA28BB38B808F918FA28F2F
:10113000B38F80A391A3A2A3B3A380A791A7A2A7D3
:10114000B3A780AB91ABA2ABB3AB20AF31AF42AF93
:1011500053AFE05CFF4F2083318342835383389643
:1011600011921082709682E08193119211921192E5
:101170001192119211921192119211921182108278
:10118000799710820895EF92FF920F931F93CF9358
:10119000DF939C01EE24FC01E65BFF4F80818D32E2
:1011A00031F4EE24E394E901C55BDF4F01C0EF01A8
:1011B0008E0120E030E040E050E018C0CA01B901E3
:1011C0002AE030E040E050E00E9470122F2D3327DB
:1011D00027FD3095432F532F20533040404050403F
:1011E000260F371F481F591F0F5F1F4FF801F08050
:1011F0008F2D80538A3010F3CA01B90124E630E004
:1012000040E050E00E9470129B01AC0101C02196A9
:101210009881892F80538A30D0F39E3229F59981A5
:10122000892F80538A3000F58AE09802C00111248A
:10123000805E9140AA2797FDA095BA2F280F391FED
:101240004A1F5B1F9A81892F80538A3068F4892F47
:10125000992787FD9095C097AA2797FDA095BA2F4B
:10126000280F391F4A1F5B1FEE2039F0509540951B
:10127000309521953F4F4F4F5F4FB901CA01DF9124
:10128000CF911F910F91FF90EF9008954F925F9231
:101290006F927F928F929F92AF92BF92CF92DF9286
:1012A000EF92FF920F931F93CF93DF932AE4822E46
:1012B000912C880E991EE40120E030E040E050E0DF
:1012C00017C0CA01B9012AE030E040E050E00E94B6
:1012D0007012212F332727FD3095432F532F205392
:1012E000304040405040260F371F481F591F21965D
:1012F0001881812F80538A3020F3722E632E542E52
:10130000452EB901CA0124E630E040E050E00E94D9
:10131000A21220E137E240E050E00E9470125B012F
:101320006C0103C00894811C911CF4019081892FE9
:1013300080538A30B8F39E3269F588EEE82E83E058
:10134000F82E012D112D1DC0332727FD3095205378
:101350003040442737FD4095542FC801B7010E9403
:101360007012A60EB71EC81ED91EC801B7012AE00A
:1013700030E040E050E00E94A212C901DA017C0195
:101380008D010894811C911CF4012081822F8053CF
:101390008A30D0F2C601B50126E030E040E050E0EE
:1013A0000E94A21279018A01672D762D852D942D38
:1013B00024E630E040E050E00E94A212CA01B901E8
:1013C00020EA36E841E050E00E947012E60EF71E77
:1013D000081F191FB701C801DF91CF911F910F910D
:1013E000FF90EF90DF90CF90BF90AF909F908F9045
:1013F0007F906F905F904F900895FF920F931F938F
:10140000CF93DF93EC01C75BDF4F8881C954D04095
:10141000882309F4CFC0C65BDF4F9881CA54D040FF
:10142000892F8154863038F4292F332727FD3095B2
:10143000275330400CC0292F332727FD3095915674
:10144000963018F42755304002C020533040C55B19
:10145000DF4F4881CB54D040842F8154863030F404
:10146000842F992787FD9095C7970BC0842F9927C4
:1014700087FD90954156463018F48755904001C03D
:10148000C09744E0220F331F4A95E1F7982F920F3F
:10149000C85BDF4F8881C854D040981709F081C0DD
:1014A000C45ADF4F8881CC55D040882309F4ACC1A1
:1014B000FE01EF59FF4F80819181019691838083D6
:1014C0008CAD9DADAEADBFAD88AF99AFAAAFBBAF90
:1014D000FE01E05CFF4FCC5BDF4F88819981AA81E0
:1014E000BB8180839183A283B38365968881C9552C
:1014F000D0408823A1F1813009F051C08C819D81B9
:10150000AE81BF8188839983AA83BB838C859D85A7
:10151000AE85BF8588879987AA87BB878C899D8977
:10152000AE89BF89888B998BAA8BBB8B8C8D9D8D47
:10153000AE8DBF8D888F998FAA8FBB8F8CA59DA5EF
:10154000AEA5BFA588A799A7AAA7BBA78CA99DA947
:10155000AEA9BFA988AB99ABAAABBBAB20C08CA18D
:101560009DA1AEA1BFA188A399A3AAA3BBA38C816F
:101570009D81AE81BF8188839983AA83BB838C8937
:101580009D89AE89BF89888B998BAA8BBB8B8C8DEB
:101590009D8DAE8DBF8D888F998FAA8FBB8F81E077
:1015A00034C1FE01ED59FF4F8081918101969183F5
:1015B00080832AC1C65ADF4F3881CA55D0403323B1
:1015C00021F59E01265B3F4FD901E0E0F1E002C02A
:1015D000119631969C91992339F080819817C1F327
:1015E000D901E6E0F1E006C0C75ADF4F81E016C13D
:1015F000119631969C91992321F080819817C1F31F
:101600000AC1C75ADF4F1882FFC0C75ADF4F88810F
:10161000C955D040823009F4F7C0C65BDF4F28813E
:10162000CA54D040222309F4EFC0882319F084E67D
:1016300090E002C088EC90E0830F911D8C369105FC
:1016400009F49FC08D369105ECF48836910509F4B4
:1016500062C0893691056CF48636910509F443C061
:10166000873691050CF047C08536910509F0CCC04E
:101670002CC08A36910509F469C08B3691050CF0AF
:1016800078C05CC08B3C910509F445C08C3C910549
:101690005CF4893C9105C9F08A3C910564F58D366E
:1016A000910509F0B1C075C08D3C910509F44EC09B
:1016B0008D3C91050CF442C08E3C910509F494C018
:1016C000813D910509F0A0C098C0CE010E94C308D9
:1016D0006C837D838E839F830E94A20E6CAF7DAF4F
:1016E0008EAF9FAF91C0FE01E45AFF4F10822134AC
:1016F00009F08AC07FC0CE010E9446096C8B7D8BA9
:101700008E8B9F8B0E94A20ECC5BDF4F6883798308
:101710008A839B8379C0233509F076C08C899D89A3
:10172000AE89BF89B095A095909581959F4FAF4F99
:10173000BF4F8C8B9D8BAE8BBF8B66C0CE010E9442
:1017400046096C8F7D8F8E8F9F8F5EC0273509F085
:101750005BC08C8D9D8DAE8DBF8DB095A095909505
:1017600081959F4FAF4FBF4F8C8F9D8FAE8FBF8F97
:101770004BC0CE010E94C3086CA77DA78EA79FA770
:1017800043C0CE010E94C3086CAB7DAB8EAB9FAB58
:101790003BC08E01065B1F4F20E030E040E050E090
:1017A00018C0CA01B9012AE030E040E050E00E94D0
:1017B00070122F2D332727FD3095432F532F2053A1
:1017C000304040405040260F371F481F591F0F5FC1
:1017D0001F4FF801F0808F2D80538A3010F32C8733
:1017E0003D874E875F8710C0FE01E45AFF4F10828D
:1017F000213354F081E0808307C0CE010E94C308EA
:101800006CA37DA38EA39FA380E0DF91CF911F9156
:101810000F91FF900895C75ADF4F82E08883F4CF7D
:101820001F93CF93DF93EC01162FFC01E35AFF4F78
:1018300080819181A281B3810196A11DB11D808318
:101840009183A283B3836432A1F1DE01A55ABF4F15
:1018500065322CF46A3069F06D30C9F50AC06A321D
:1018600041F06C32A1F5FE01E85BFF4F80818627D5
:1018700080838C918F3010F090E00AC0FE01E80F59
:10188000F11DE65BFF4F1082CE010E94FD09982FEB
:10189000FE01E65AFF4F80818F5F8083C55ADF4F7C
:1018A0001882FE01729710821A3251F581E080830E
:1018B00027C0C55ADF4F18821A9262971882619624
:1018C00082E08883609718826396188218C08C9192
:1018D0008E3040F4FE01E80FF11DE65BFF4F1083F0
:1018E0008F5F8C93C75BDF4F8881C954D0408823BA
:1018F00031F4FE01E85BFF4F80818127808390E017
:10190000892FDF91CF911F9108958130910579F44E
:101910006F5F7F4FA9F485ED91E00E9480088CE312
:1019200092E062E043E020E00E945C080895892B89
:1019300039F46F5F7F4F21F48CE392E00E94DF0661
:10194000089580E090E06FEF7FEF0E94850C08958E
:1019500081E090E06FEF7FEF0E94850C08950F9378
:101960001F93CF93DF936091CF017091D00188E7EF
:1019700091E00E94FC0188E791E06CE071E00E9438
:101980006A0288E791E00E9475026AE070E080E0F8
:1019900090E00E94B00E6091CF017091D00188E775
:1019A00091E042E050E00E949602C3EDD1E088E76A
:1019B00091E00E9406028823A9F181E0C53DD80785
:1019C00089F188E791E00E940C028993F0CF8CE3C3
:1019D00092E00E94E806682F85ED91E00E94100CCD
:1019E000882301F18091E5019091E601A091E70142
:1019F000B091E80180934E0290934F02A093500261
:101A0000B09351028091ED019091EE01A091EF0110
:101A1000B091F0018093520290935302A09354022C
:101A2000B09355028CE392E00E941B07882379F65D
:101A30009091D30180E02091D401820F911D909369
:101A4000D2018093D10183EE92E06EE071E00E94BA
:101A5000771140914E0250914F0260915002709167
:101A6000510283EE92E00E94391283EE92E069E126
:101A700071E00E947711409152025091530260919F
:101A800054027091550283EE92E00E94391283EE67
:101A900092E06BE171E00E94961183EE92E06EE1BC
:101AA00071E00E9477118091D1019091D2016AE09A
:101AB00070E00E948F1283EE92E00E94601283EE2B
:101AC00092E00E94B710882309F442C083EE92E0AE
:101AD0000E94CB10082F10E083EE92E060E371E0EB
:101AE0000E94771183EE92E0B8010E94601280910B
:101AF000D1019091D20166EF7FEF0E948F12600FAB
:101B0000711F9B0177FF04C022273327261B370B49
:101B100080915101909152018217930744F577FF0C
:101B200009C0809153016FEF0E94340F80915501DD
:101B300060E016C08091530160E00E94340F8091F4
:101B4000550160E00E94340F809157016FEF0DC086
:101B50008091530160E00E94340F809155016FEF36
:101B60000E94340F8091570160E00E94340F64EFAF
:101B700071E080E090E00E94B00EDF91CF911F9164
:101B80000F91089580914F019091500195958795FF
:101B90009093D0018093CF018091530161E00E9426
:101BA000140F8091550161E00E94140F809157013C
:101BB00061E00E94140F809153016FEF0E94340F77
:101BC0008091550160E00E94340F8091570160E0E0
:101BD0000E94340F68EE73E080E090E00E94B00E47
:101BE0008091530160E00E94340F809155016FEFA6
:101BF0000E94340F8091570160E00E94340F68EE1C
:101C000073E080E090E00E94B00E8091530160E0AC
:101C10000E94340F8091550160E00E94340F809142
:101C200057016FEF0E94340F68EE73E080E090E0A0
:101C30000E94B00E809153016FEF0E94340F80918B
:101C400055016FEF0E94340F809157016FEF0E9492
:101C5000340F68EE73E080E090E00E94B00E809157
:101C6000530160E00E94340F8091550160E00E94B2
:101C7000340F8091570160E00E94340F83EE92E0B0
:101C800040E052EC61E070E00E94BE0F8CE392E015
:101C900040EC52E160E070E00E94ED0588E791E0E1
:101CA0000E94990208950E94DA0E0E94C20D0E94BD
:101CB000AF0CFDCF1F920F920FB60F9211242F93EE
:101CC0003F938F939F93AF93BF9380915A029091CC
:101CD0005B02A0915C02B0915D0230915E020196C0
:101CE000A11DB11D232F2D5F2D3720F02D570196FB
:101CF000A11DB11D20935E0280935A0290935B0256
:101D0000A0935C02B0935D028091560290915702BD
:101D1000A0915802B09159020196A11DB11D809366
:101D2000560290935702A0935802B0935902BF9164
:101D3000AF919F918F913F912F910F900FBE0F9078
:101D40001F9018958FB7F89420915A0230915B023A
:101D500040915C0250915D028FBFB901CA010895A4
:101D6000EF92FF920F931F937B018C018FB7F89432
:101D700040915A0250915B0260915C0270915D0249
:101D80008FBF2FB7F89480915A0290915B02A09177
:101D90005C02B0915D022FBF841B950BA60BB70BA5
:101DA000E816F9060A071B0760F71F910F91FF90CD
:101DB000EF900895789484B5826084BD84B5816085
:101DC00084BD85B5826085BD85B5816085BDEEE643
:101DD000F0E0808181608083E1E8F0E080818260D2
:101DE0008083808181608083E0E8F0E08081816091
:101DF0008083E1EBF0E0808184608083E0EBF0E0C1
:101E0000808181608083EAE7F0E080818460808364
:101E1000808182608083808181608083808180680E
:101E200080831092C1000895282F30E0C901865D9B
:101E30009E4FFC0194912A5E3E4FF90184918823C4
:101E400091F0E82FF0E0EE0FFF1FE850FF4FA59153
:101E5000B491662329F48C91909589238C930895ED
:101E60008C91892B8C930895482F50E0CA01825C95
:101E70009E4FFC012491CA01865D9E4FFC01949106
:101E80004A5E5E4FFA0134913323D1F1222331F1BE
:101E9000233021F4809180008F7705C0243031F405
:101EA000809180008F7D8093800018C0213019F4CC
:101EB00084B58F7704C0223021F484B58F7D84BD32
:101EC0000DC0263021F48091B0008F7705C02730F7
:101ED00029F48091B0008F7D8093B000E32FF0E073
:101EE000EE0FFF1FEE5FFE4FA591B491662329F41C
:101EF0008C91909589238C9308958C91892B8C9348
:101F000008951F920F920FB60F9211242F933F93B3
:101F10004F935F936F937F938F939F93AF93BF93F1
:101F2000EF93FF934091C600E091DF02F091E00251
:101F3000CF01019660E870E00E948F129C018091B1
:101F4000E1029091E2022817390739F0E15AFD4F7A
:101F500040833093E0022093DF02FF91EF91BF9125
:101F6000AF919F918F917F916F915F914F913F9131
:101F70002F910F900FBE0F901F9018955F926F9248
:101F80007F928F929F92AF92BF92CF92DF92EF9209
:101F9000FF920F931F93CF93DF93EC013A014B0114
:101FA000413482E458078FE0680780E078070CF03E
:101FB0007FC060E874E88EE190E0A40193010E9484
:101FC000C4122150304040405040CA01B90122E0C3
:101FD00030E040E050E00E94C41259016A01A601BD
:101FE0009501209530954095509594E0220F331F30
:101FF000441F551F9A95D1F760E074E284EF90E09A
:102000000E94C412CA01B9012FEF30E040E050E055
:102010000E947012A40193010E94C412C901815050
:102020009F4F181619061CF4522E5A9403C05524BB
:102030005394521A60E079E08DE390E0A40193019B
:102040000E94C4122150304040405040CA01B901A2
:1020500022E030E040E050E00E94C412209530952C
:102060004095509583E0220F331F441F551F8A95DA
:10207000D1F760E074E284EF90E00E94C412CA01DC
:10208000B9012FEF30E040E050E00E947012A4014F
:1020900093010E94C412C90181509F4F181619065E
:1020A0001CF4822F815002C081E0821B851500F54F
:1020B000E885F98581E090E00A8802C0880F991FC1
:1020C0000A94E2F7808360E079E08DE390E0A40178
:1020D00093010E94C4122150304040405040CA0138
:1020E000B90122E030E040E050E00E94C41204C098
:1020F000E885F98510829501EC81FD813083EE81C0
:10210000FF812083EA85FB85208141E050E0CA0100
:102110000E8402C0880F991F0A94E2F7282B2083AF
:10212000EA85FB852081CA010F8402C0880F991FB0
:102130000A94E2F7282B2083EA85FB8580810888B2
:1021400002C0440F551F0A94E2F7842B8083DF916D
:10215000CF911F910F91FF90EF90DF90CF90BF90A4
:10216000AF909F908F907F906F905F900895DC016B
:102170001296ED91FC911397E058FF4F8191919148
:1021800080589F4F20813181821B930B60E870E063
:102190000E948F120895CF93DF93DC011296ED9188
:1021A000FC911397EF01CE57DF4F48815981E058DA
:1021B000FF4F80819181E058F0408417950719F412
:1021C0002FEF3FEF0CC0E40FF51F2081CA010196ED
:1021D00060E870E00E948F129983888330E0C90123
:1021E000DF91CF910895FC01A085B18521898C9163
:1021F00090E0022E02C0959587950A94E2F780FF41
:10220000F6CF0484F585E02D6083089587E691E09C
:102210009093E4028093E3028FE592E09093E602CC
:102220008093E50285EC90E09093E8028093E702CA
:1022300084EC90E09093EA028093E90280EC90E0D5
:102240009093EC028093EB0281EC90E09093EE028D
:102250008093ED0286EC90E09093F0028093EF0281
:1022600084E08093F10283E08093F20287E0809320
:10227000F30285E08093F40281E08093F5020895F3
:102280000F931F93CF93DF938C01EB0109C021962D
:10229000D801ED91FC910190F081E02DC8010995E4
:1022A00068816623A1F7DF91CF911F910F91089567
:1022B000EF92FF920F931F93CF93DF938C017B01DB
:1022C000EA010CC0D7016D917D01D801ED91FC911F
:1022D0000190F081E02DC80109952197209791F791
:1022E000DF91CF911F910F91FF90EF900895DC0146
:1022F000ED91FC910280F381E02D099508950F93F3
:102300001F938C01DC01ED91FC910190F081E02D97
:102310006DE00995D801ED91FC910190F081E02DDF
:10232000C8016AE009951F910F9108950F931F93BB
:102330008C010E947711C8010E947F111F910F919B
:1023400008952F923F924F925F926F927F928F9259
:102350009F92AF92BF92CF92DF92EF92FF920F9334
:102360001F93DF93CF93CDB7DEB7A0970FB6F89446
:10237000DEBF0FBECDBF1C016A017B0141155105B7
:102380006105710549F4DC01ED91FC910190F0814A
:10239000E02D60E3099554C0882499245401422E0D
:1023A00055246624772401E010E00C0F1D1F080D52
:1023B000191DC701B601A30192010E94A212F801E2
:1023C00060830894811C911CA11CB11CC701B6013B
:1023D000A30192010E94A212C901DA016C017D01E0
:1023E000C114D104E104F104F1F681E0E82EF12CEE
:1023F000EC0EFD1EE80CF91C3E010894611C711CDA
:10240000D501C4010197A109B1096C01C818D90807
:1024100014C0F601EE0DFF1D60816A3010F4605D9E
:1024200001C0695CD101ED91FC910190F081E02D3A
:10243000C10109950894E108F1086E147F0449F779
:10244000A0960FB6F894DEBF0FBECDBFCF91DF913F
:102450001F910F91FF90EF90DF90CF90BF90AF90C2
:102460009F908F907F906F905F904F903F902F90B4
:102470000895EF92FF920F931F93CF93DF93EC0198
:102480007A018B0177FF0FC0E881F9810190F0811B
:10249000E02D6DE2099510950095F094E094E11C13
:1024A000F11C011D111DCE01B801A7012AE00E94F7
:1024B000A111DF91CF911F910F91FF90EF9008959F
:1024C0000F931F938C01AB01662757FD6095762F04
:1024D0000E943912C8010E947F111F910F91089527
:1024E000629FD001739FF001829FE00DF11D649FF8
:1024F000E00DF11D929FF00D839FF00D749FF00D84
:10250000659FF00D9927729FB00DE11DF91F639F24
:10251000B00DE11DF91FBD01CF011124089597FBF6
:10252000092E07260AD077FD04D049D006D0002016
:102530001AF4709561957F4F0895F6F790958195FF
:102540009F4F0895A1E21A2EAA1BBB1BFD010DC0CF
:10255000AA1FBB1FEE1FFF1FA217B307E407F50753
:1025600020F0A21BB30BE40BF50B661F771F881F2F
:10257000991F1A9469F760957095809590959B01C5
:10258000AC01BD01CF01089597FB092E05260ED0A1
:1025900057FD04D0D7DF0AD0001C38F45095409581
:1025A000309521953F4F4F4F5F4F0895F6F7909527
:1025B0008095709561957F4F8F4F9F4F0895AA1B0F
:1025C000BB1B51E107C0AA1FBB1FA617B70710F01E
:1025D000A61BB70B881F991F5A95A9F78095909550
:1025E000BC01CD010895EE0FFF1F0590F491E02D81
:1025F000099411E0C8E5D1E004C0FE010E94F51283
:0C2600002296CA35D107C9F7F894FFCF25
:10260C004750524D43004750474741004100454E0B
:10261C00474C31313032263B003B003B3B00417292
:10262C006475696E6F20636F6D706173733A20000F
:10263C0041726475696E6F20686173206E657720D6
:10264C006461746121202D20002000FA02000042F8
:10265C00000A0005000600070000000000430740C8
:0E266C0011581100000000F310401158110029
:00000001FF
